{
	"contracts/MerklTree.sol": {
		"Tree": {
			"abi": [
				{
					"inputs": [],
					"stateMutability": "nonpayable",
					"type": "constructor"
				},
				{
					"inputs": [
						{
							"internalType": "string",
							"name": "input",
							"type": "string"
						}
					],
					"name": "encode",
					"outputs": [
						{
							"internalType": "bytes",
							"name": "",
							"type": "bytes"
						}
					],
					"stateMutability": "pure",
					"type": "function"
				},
				{
					"inputs": [
						{
							"internalType": "uint256",
							"name": "",
							"type": "uint256"
						}
					],
					"name": "hashes",
					"outputs": [
						{
							"internalType": "bytes32",
							"name": "",
							"type": "bytes32"
						}
					],
					"stateMutability": "view",
					"type": "function"
				},
				{
					"inputs": [
						{
							"internalType": "string",
							"name": "input",
							"type": "string"
						}
					],
					"name": "makeHash",
					"outputs": [
						{
							"internalType": "bytes32",
							"name": "",
							"type": "bytes32"
						}
					],
					"stateMutability": "pure",
					"type": "function"
				},
				{
					"inputs": [
						{
							"internalType": "string",
							"name": "transaction",
							"type": "string"
						},
						{
							"internalType": "uint256",
							"name": "index",
							"type": "uint256"
						},
						{
							"internalType": "bytes32",
							"name": "root",
							"type": "bytes32"
						},
						{
							"internalType": "bytes32[]",
							"name": "proof",
							"type": "bytes32[]"
						}
					],
					"name": "verify",
					"outputs": [
						{
							"internalType": "bool",
							"name": "",
							"type": "bool"
						}
					],
					"stateMutability": "pure",
					"type": "function"
				}
			],
			"devdoc": {
				"kind": "dev",
				"methods": {},
				"version": 1
			},
			"evm": {
				"assembly": "    /* \"contracts/MerklTree.sol\":74:2176  contract Tree {... */\n  mstore(0x40, 0x80)\n    /* \"contracts/MerklTree.sol\":157:302  string[4] transactions = [... */\n  mload(0x40)\n  dup1\n  0x80\n  add\n  0x40\n  mstore\n  dup1\n  mload(0x40)\n  dup1\n  0x40\n  add\n  0x40\n  mstore\n  dup1\n  0x15\n  dup2\n  mstore\n  0x20\n  add\n  0x5458313a20536865726c6f636b202d3e204a6f6e680000000000000000000000\n  dup2\n  mstore\n  pop\n  dup2\n  mstore\n  0x20\n  add\n  mload(0x40)\n  dup1\n  0x40\n  add\n  0x40\n  mstore\n  dup1\n  0x15\n  dup2\n  mstore\n  0x20\n  add\n  0x5458323a204a6f6e68202d3e20536865726c6f636b0000000000000000000000\n  dup2\n  mstore\n  pop\n  dup2\n  mstore\n  0x20\n  add\n  mload(0x40)\n  dup1\n  0x40\n  add\n  0x40\n  mstore\n  dup1\n  0x15\n  dup2\n  mstore\n  0x20\n  add\n  0x5458333a20536865726c6f636b202d3e204d6172790000000000000000000000\n  dup2\n  mstore\n  pop\n  dup2\n  mstore\n  0x20\n  add\n  mload(0x40)\n  dup1\n  0x40\n  add\n  0x40\n  mstore\n  dup1\n  0x15\n  dup2\n  mstore\n  0x20\n  add\n  0x5458343a204d617279202d3e20536865726c6f636b0000000000000000000000\n  dup2\n  mstore\n  pop\n  dup2\n  mstore\n  pop\n  0x01\n  swap1\n  0x04\n  tag_1\n  swap3\n  swap2\n  swap1\n  tag_2\n  jump\t// in\ntag_1:\n  pop\n    /* \"contracts/MerklTree.sol\":307:349  constructor() {... */\n  callvalue\n  dup1\n  iszero\n  tag_3\n  jumpi\n  0x00\n  dup1\n  revert\ntag_3:\n  pop\n    /* \"contracts/MerklTree.sol\":327:344  buildMerkleTree() */\n  tag_6\n    /* \"contracts/MerklTree.sol\":327:342  buildMerkleTree */\n  shl(0x20, tag_7)\n    /* \"contracts/MerklTree.sol\":327:344  buildMerkleTree() */\n  0x20\n  shr\n  jump\t// in\ntag_6:\n    /* \"contracts/MerklTree.sol\":74:2176  contract Tree {... */\n  jump(tag_8)\n    /* \"contracts/MerklTree.sol\":353:556  function buildMerkleTree() internal {... */\ntag_7:\n    /* \"contracts/MerklTree.sol\":400:406  uint i */\n  0x00\n    /* \"contracts/MerklTree.sol\":395:497  for (uint i = 0; i < transactions.length; i++) {... */\ntag_10:\n    /* \"contracts/MerklTree.sol\":416:435  transactions.length */\n  0x04\n    /* \"contracts/MerklTree.sol\":412:413  i */\n  dup2\n    /* \"contracts/MerklTree.sol\":412:435  i < transactions.length */\n  lt\n    /* \"contracts/MerklTree.sol\":395:497  for (uint i = 0; i < transactions.length; i++) {... */\n  iszero\n  tag_11\n  jumpi\n    /* \"contracts/MerklTree.sol\":452:458  hashes */\n  0x00\n    /* \"contracts/MerklTree.sol\":464:489  makeHash(transactions[i]) */\n  tag_13\n    /* \"contracts/MerklTree.sol\":473:485  transactions */\n  0x01\n    /* \"contracts/MerklTree.sol\":486:487  i */\n  dup4\n    /* \"contracts/MerklTree.sol\":473:488  transactions[i] */\n  0x04\n  dup2\n  lt\n  tag_14\n  jumpi\n  tag_15\n  tag_16\n  jump\t// in\ntag_15:\ntag_14:\n  add\n    /* \"contracts/MerklTree.sol\":464:489  makeHash(transactions[i]) */\n  dup1\n  sload\n  tag_18\n  swap1\n  tag_19\n  jump\t// in\ntag_18:\n  dup1\n  0x1f\n  add\n  0x20\n  dup1\n  swap2\n  div\n  mul\n  0x20\n  add\n  mload(0x40)\n  swap1\n  dup2\n  add\n  0x40\n  mstore\n  dup1\n  swap3\n  swap2\n  swap1\n  dup2\n  dup2\n  mstore\n  0x20\n  add\n  dup3\n  dup1\n  sload\n  tag_20\n  swap1\n  tag_19\n  jump\t// in\ntag_20:\n  dup1\n  iszero\n  tag_21\n  jumpi\n  dup1\n  0x1f\n  lt\n  tag_22\n  jumpi\n  0x0100\n  dup1\n  dup4\n  sload\n  div\n  mul\n  dup4\n  mstore\n  swap2\n  0x20\n  add\n  swap2\n  jump(tag_21)\ntag_22:\n  dup3\n  add\n  swap2\n  swap1\n  0x00\n  mstore\n  keccak256(0x00, 0x20)\n  swap1\ntag_23:\n  dup2\n  sload\n  dup2\n  mstore\n  swap1\n  0x01\n  add\n  swap1\n  0x20\n  add\n  dup1\n  dup4\n  gt\n  tag_23\n  jumpi\n  dup3\n  swap1\n  sub\n  0x1f\n  and\n  dup3\n  add\n  swap2\ntag_21:\n  pop\n  pop\n  pop\n  pop\n  pop\n    /* \"contracts/MerklTree.sol\":464:472  makeHash */\n  shl(0x20, tag_24)\n    /* \"contracts/MerklTree.sol\":464:489  makeHash(transactions[i]) */\n  0x20\n  shr\n  jump\t// in\ntag_13:\n    /* \"contracts/MerklTree.sol\":452:490  hashes.push(makeHash(transactions[i])) */\n  swap1\n  dup1\n  0x01\n  dup2\n  sload\n  add\n  dup1\n  dup3\n  sstore\n  dup1\n  swap2\n  pop\n  pop\n  0x01\n  swap1\n  sub\n  swap1\n  0x00\n  mstore\n  keccak256(0x00, 0x20)\n  add\n  0x00\n  swap1\n  swap2\n  swap1\n  swap2\n  swap1\n  swap2\n  pop\n  sstore\n    /* \"contracts/MerklTree.sol\":437:440  i++ */\n  dup1\n  dup1\n  0x01\n  add\n  swap2\n  pop\n  pop\n    /* \"contracts/MerklTree.sol\":395:497  for (uint i = 0; i < transactions.length; i++) {... */\n  jump(tag_10)\ntag_11:\n  pop\n    /* \"contracts/MerklTree.sol\":503:551  buildMerkleTreeRecursive(0, transactions.length) */\n  tag_26\n    /* \"contracts/MerklTree.sol\":528:529  0 */\n  0x00\n    /* \"contracts/MerklTree.sol\":531:550  transactions.length */\n  0x04\n    /* \"contracts/MerklTree.sol\":503:527  buildMerkleTreeRecursive */\n  shl(0x20, tag_27)\n    /* \"contracts/MerklTree.sol\":503:551  buildMerkleTreeRecursive(0, transactions.length) */\n  0x20\n  shr\n  jump\t// in\ntag_26:\n    /* \"contracts/MerklTree.sol\":353:556  function buildMerkleTree() internal {... */\n  jump\t// out\n    /* \"contracts/MerklTree.sol\":1363:1485  function makeHash(string memory input) public pure returns(bytes32) {... */\ntag_24:\n    /* \"contracts/MerklTree.sol\":1422:1429  bytes32 */\n  0x00\n    /* \"contracts/MerklTree.sol\":1461:1474  encode(input) */\n  tag_29\n    /* \"contracts/MerklTree.sol\":1468:1473  input */\n  dup3\n    /* \"contracts/MerklTree.sol\":1461:1467  encode */\n  shl(0x20, tag_30)\n    /* \"contracts/MerklTree.sol\":1461:1474  encode(input) */\n  0x20\n  shr\n  jump\t// in\ntag_29:\n    /* \"contracts/MerklTree.sol\":1444:1480  keccak256(... */\n  dup1\n  mload\n  swap1\n  0x20\n  add\n  keccak256\n    /* \"contracts/MerklTree.sol\":1437:1480  return keccak256(... */\n  swap1\n  pop\n    /* \"contracts/MerklTree.sol\":1363:1485  function makeHash(string memory input) public pure returns(bytes32) {... */\n  swap2\n  swap1\n  pop\n  jump\t// out\n    /* \"contracts/MerklTree.sol\":560:1243  function buildMerkleTreeRecursive(uint offset, uint count) internal{... */\ntag_27:\n    /* \"contracts/MerklTree.sol\":646:647  1 */\n  0x01\n    /* \"contracts/MerklTree.sol\":637:642  count */\n  dup2\n    /* \"contracts/MerklTree.sol\":637:647  count == 1 */\n  sub\n    /* \"contracts/MerklTree.sol\":633:728  if (count == 1) {... */\n  iszero\n    /* \"contracts/MerklTree.sol\":663:670  return; */\n  tag_31\n    /* \"contracts/MerklTree.sol\":633:728  if (count == 1) {... */\n  jumpi\n    /* \"contracts/MerklTree.sol\":738:751  uint newCount */\n  0x00\n    /* \"contracts/MerklTree.sol\":770:776  uint i */\n  dup1\n    /* \"contracts/MerklTree.sol\":765:1178  for (uint i = 0; i < count; i += 2) {... */\ntag_33:\n    /* \"contracts/MerklTree.sol\":786:791  count */\n  dup3\n    /* \"contracts/MerklTree.sol\":782:783  i */\n  dup2\n    /* \"contracts/MerklTree.sol\":782:791  i < count */\n  lt\n    /* \"contracts/MerklTree.sol\":765:1178  for (uint i = 0; i < count; i += 2) {... */\n  iszero\n  tag_34\n  jumpi\n    /* \"contracts/MerklTree.sol\":827:832  count */\n  dup3\n    /* \"contracts/MerklTree.sol\":823:824  1 */\n  0x01\n    /* \"contracts/MerklTree.sol\":819:820  i */\n  dup3\n    /* \"contracts/MerklTree.sol\":819:824  i + 1 */\n  tag_36\n  swap2\n  swap1\n  tag_37\n  jump\t// in\ntag_36:\n    /* \"contracts/MerklTree.sol\":819:832  i + 1 < count */\n  lt\n    /* \"contracts/MerklTree.sol\":815:1144  if (i + 1 < count) {... */\n  iszero\n  tag_38\n  jumpi\n    /* \"contracts/MerklTree.sol\":852:858  hashes */\n  0x00\n    /* \"contracts/MerklTree.sol\":912:918  hashes */\n  dup1\n    /* \"contracts/MerklTree.sol\":928:929  i */\n  dup3\n    /* \"contracts/MerklTree.sol\":919:925  offset */\n  dup7\n    /* \"contracts/MerklTree.sol\":919:929  offset + i */\n  tag_39\n  swap2\n  swap1\n  tag_37\n  jump\t// in\ntag_39:\n    /* \"contracts/MerklTree.sol\":912:930  hashes[offset + i] */\n  dup2\n  sload\n  dup2\n  lt\n  tag_40\n  jumpi\n  tag_41\n  tag_16\n  jump\t// in\ntag_41:\ntag_40:\n  swap1\n  0x00\n  mstore\n  keccak256(0x00, 0x20)\n  add\n  sload\n    /* \"contracts/MerklTree.sol\":932:938  hashes */\n  0x00\n    /* \"contracts/MerklTree.sol\":952:953  1 */\n  0x01\n    /* \"contracts/MerklTree.sol\":948:949  i */\n  dup5\n    /* \"contracts/MerklTree.sol\":939:945  offset */\n  dup9\n    /* \"contracts/MerklTree.sol\":939:949  offset + i */\n  tag_43\n  swap2\n  swap1\n  tag_37\n  jump\t// in\ntag_43:\n    /* \"contracts/MerklTree.sol\":939:953  offset + i + 1 */\n  tag_44\n  swap2\n  swap1\n  tag_37\n  jump\t// in\ntag_44:\n    /* \"contracts/MerklTree.sol\":932:954  hashes[offset + i + 1] */\n  dup2\n  sload\n  dup2\n  lt\n  tag_45\n  jumpi\n  tag_46\n  tag_16\n  jump\t// in\ntag_46:\ntag_45:\n  swap1\n  0x00\n  mstore\n  keccak256(0x00, 0x20)\n  add\n  sload\n    /* \"contracts/MerklTree.sol\":895:955  abi.encodePacked(hashes[offset + i], hashes[offset + i + 1]) */\n  add(0x20, mload(0x40))\n  tag_48\n  swap3\n  swap2\n  swap1\n  tag_49\n  jump\t// in\ntag_48:\n  mload(0x40)\n  0x20\n  dup2\n  dup4\n  sub\n  sub\n  dup2\n  mstore\n  swap1\n  0x40\n  mstore\n    /* \"contracts/MerklTree.sol\":885:956  keccak256(abi.encodePacked(hashes[offset + i], hashes[offset + i + 1])) */\n  dup1\n  mload\n  swap1\n  0x20\n  add\n  keccak256\n    /* \"contracts/MerklTree.sol\":852:974  hashes.push(... */\n  swap1\n  dup1\n  0x01\n  dup2\n  sload\n  add\n  dup1\n  dup3\n  sstore\n  dup1\n  swap2\n  pop\n  pop\n  0x01\n  swap1\n  sub\n  swap1\n  0x00\n  mstore\n  keccak256(0x00, 0x20)\n  add\n  0x00\n  swap1\n  swap2\n  swap1\n  swap2\n  swap1\n  swap2\n  pop\n  sstore\n    /* \"contracts/MerklTree.sol\":815:1144  if (i + 1 < count) {... */\n  jump(tag_51)\ntag_38:\n    /* \"contracts/MerklTree.sol\":1013:1019  hashes */\n  0x00\n    /* \"contracts/MerklTree.sol\":1025:1031  hashes */\n  dup1\n    /* \"contracts/MerklTree.sol\":1041:1042  i */\n  dup3\n    /* \"contracts/MerklTree.sol\":1032:1038  offset */\n  dup7\n    /* \"contracts/MerklTree.sol\":1032:1042  offset + i */\n  tag_52\n  swap2\n  swap1\n  tag_37\n  jump\t// in\ntag_52:\n    /* \"contracts/MerklTree.sol\":1025:1043  hashes[offset + i] */\n  dup2\n  sload\n  dup2\n  lt\n  tag_53\n  jumpi\n  tag_54\n  tag_16\n  jump\t// in\ntag_54:\ntag_53:\n  swap1\n  0x00\n  mstore\n  keccak256(0x00, 0x20)\n  add\n  sload\n    /* \"contracts/MerklTree.sol\":1013:1044  hashes.push(hashes[offset + i]) */\n  swap1\n  dup1\n  0x01\n  dup2\n  sload\n  add\n  dup1\n  dup3\n  sstore\n  dup1\n  swap2\n  pop\n  pop\n  0x01\n  swap1\n  sub\n  swap1\n  0x00\n  mstore\n  keccak256(0x00, 0x20)\n  add\n  0x00\n  swap1\n  swap2\n  swap1\n  swap2\n  swap1\n  swap2\n  pop\n  sstore\n    /* \"contracts/MerklTree.sol\":815:1144  if (i + 1 < count) {... */\ntag_51:\n    /* \"contracts/MerklTree.sol\":1157:1167  newCount++ */\n  dup2\n  dup1\n  tag_57\n  swap1\n  tag_58\n  jump\t// in\ntag_57:\n  swap3\n  pop\n  pop\n    /* \"contracts/MerklTree.sol\":798:799  2 */\n  0x02\n    /* \"contracts/MerklTree.sol\":793:799  i += 2 */\n  dup2\n  tag_59\n  swap2\n  swap1\n  tag_37\n  jump\t// in\ntag_59:\n  swap1\n  pop\n    /* \"contracts/MerklTree.sol\":765:1178  for (uint i = 0; i < count; i += 2) {... */\n  jump(tag_33)\ntag_34:\n  pop\n    /* \"contracts/MerklTree.sol\":1188:1238  buildMerkleTreeRecursive(offset + count, newCount) */\n  tag_60\n    /* \"contracts/MerklTree.sol\":1222:1227  count */\n  dup3\n    /* \"contracts/MerklTree.sol\":1213:1219  offset */\n  dup5\n    /* \"contracts/MerklTree.sol\":1213:1227  offset + count */\n  tag_61\n  swap2\n  swap1\n  tag_37\n  jump\t// in\ntag_61:\n    /* \"contracts/MerklTree.sol\":1229:1237  newCount */\n  dup3\n    /* \"contracts/MerklTree.sol\":1188:1212  buildMerkleTreeRecursive */\n  shl(0x20, tag_27)\n    /* \"contracts/MerklTree.sol\":1188:1238  buildMerkleTreeRecursive(offset + count, newCount) */\n  0x20\n  shr\n  jump\t// in\ntag_60:\n    /* \"contracts/MerklTree.sol\":627:1243  {... */\n  pop\n    /* \"contracts/MerklTree.sol\":560:1243  function buildMerkleTreeRecursive(uint offset, uint count) internal{... */\ntag_31:\n  pop\n  pop\n  jump\t// out\n    /* \"contracts/MerklTree.sol\":1247:1359  function encode(string memory input) public pure returns(bytes memory) {... */\ntag_30:\n    /* \"contracts/MerklTree.sol\":1304:1316  bytes memory */\n  0x60\n    /* \"contracts/MerklTree.sol\":1348:1353  input */\n  dup2\n    /* \"contracts/MerklTree.sol\":1331:1354  abi.encodePacked(input) */\n  add(0x20, mload(0x40))\n  tag_63\n  swap2\n  swap1\n  tag_64\n  jump\t// in\ntag_63:\n  mload(0x40)\n  0x20\n  dup2\n  dup4\n  sub\n  sub\n  dup2\n  mstore\n  swap1\n  0x40\n  mstore\n    /* \"contracts/MerklTree.sol\":1324:1354  return abi.encodePacked(input) */\n  swap1\n  pop\n    /* \"contracts/MerklTree.sol\":1247:1359  function encode(string memory input) public pure returns(bytes memory) {... */\n  swap2\n  swap1\n  pop\n  jump\t// out\n    /* \"contracts/MerklTree.sol\":74:2176  contract Tree {... */\ntag_2:\n  dup3\n  0x04\n  dup2\n  add\n  swap3\n  dup3\n  iszero\n  tag_65\n  jumpi\n  swap2\n  0x20\n  mul\n  dup3\n  add\ntag_66:\n  dup3\n  dup2\n  gt\n  iszero\n  tag_67\n  jumpi\n  dup3\n  mload\n  dup3\n  swap1\n  dup2\n  tag_68\n  swap2\n  swap1\n  tag_69\n  jump\t// in\ntag_68:\n  pop\n  swap2\n  0x20\n  add\n  swap2\n  swap1\n  0x01\n  add\n  swap1\n  jump(tag_66)\ntag_67:\ntag_65:\n  pop\n  swap1\n  pop\n  tag_70\n  swap2\n  swap1\n  tag_71\n  jump\t// in\ntag_70:\n  pop\n  swap1\n  jump\t// out\ntag_71:\ntag_72:\n  dup1\n  dup3\n  gt\n  iszero\n  tag_73\n  jumpi\n  0x00\n  dup2\n  dup2\n  tag_74\n  swap2\n  swap1\n  tag_75\n  jump\t// in\ntag_74:\n  pop\n  0x01\n  add\n  jump(tag_72)\ntag_73:\n  pop\n  swap1\n  jump\t// out\ntag_75:\n  pop\n  dup1\n  sload\n  tag_76\n  swap1\n  tag_19\n  jump\t// in\ntag_76:\n  0x00\n  dup3\n  sstore\n  dup1\n  0x1f\n  lt\n  tag_78\n  jumpi\n  pop\n  jump(tag_77)\ntag_78:\n  0x1f\n  add\n  0x20\n  swap1\n  div\n  swap1\n  0x00\n  mstore\n  keccak256(0x00, 0x20)\n  swap1\n  dup2\n  add\n  swap1\n  tag_79\n  swap2\n  swap1\n  tag_80\n  jump\t// in\ntag_79:\ntag_77:\n  pop\n  jump\t// out\ntag_80:\ntag_81:\n  dup1\n  dup3\n  gt\n  iszero\n  tag_82\n  jumpi\n  0x00\n  dup2\n  0x00\n  swap1\n  sstore\n  pop\n  0x01\n  add\n  jump(tag_81)\ntag_82:\n  pop\n  swap1\n  jump\t// out\n    /* \"#utility.yul\":7:187   */\ntag_16:\n    /* \"#utility.yul\":55:132   */\n  0x4e487b7100000000000000000000000000000000000000000000000000000000\n    /* \"#utility.yul\":52:53   */\n  0x00\n    /* \"#utility.yul\":45:133   */\n  mstore\n    /* \"#utility.yul\":152:156   */\n  0x32\n    /* \"#utility.yul\":149:150   */\n  0x04\n    /* \"#utility.yul\":142:157   */\n  mstore\n    /* \"#utility.yul\":176:180   */\n  0x24\n    /* \"#utility.yul\":173:174   */\n  0x00\n    /* \"#utility.yul\":166:181   */\n  revert\n    /* \"#utility.yul\":193:373   */\ntag_83:\n    /* \"#utility.yul\":241:318   */\n  0x4e487b7100000000000000000000000000000000000000000000000000000000\n    /* \"#utility.yul\":238:239   */\n  0x00\n    /* \"#utility.yul\":231:319   */\n  mstore\n    /* \"#utility.yul\":338:342   */\n  0x22\n    /* \"#utility.yul\":335:336   */\n  0x04\n    /* \"#utility.yul\":328:343   */\n  mstore\n    /* \"#utility.yul\":362:366   */\n  0x24\n    /* \"#utility.yul\":359:360   */\n  0x00\n    /* \"#utility.yul\":352:367   */\n  revert\n    /* \"#utility.yul\":379:699   */\ntag_19:\n    /* \"#utility.yul\":423:429   */\n  0x00\n    /* \"#utility.yul\":460:461   */\n  0x02\n    /* \"#utility.yul\":454:458   */\n  dup3\n    /* \"#utility.yul\":450:462   */\n  div\n    /* \"#utility.yul\":440:462   */\n  swap1\n  pop\n    /* \"#utility.yul\":507:508   */\n  0x01\n    /* \"#utility.yul\":501:505   */\n  dup3\n    /* \"#utility.yul\":497:509   */\n  and\n    /* \"#utility.yul\":528:546   */\n  dup1\n    /* \"#utility.yul\":518:599   */\n  tag_113\n  jumpi\n    /* \"#utility.yul\":584:588   */\n  0x7f\n    /* \"#utility.yul\":576:582   */\n  dup3\n    /* \"#utility.yul\":572:589   */\n  and\n    /* \"#utility.yul\":562:589   */\n  swap2\n  pop\n    /* \"#utility.yul\":518:599   */\ntag_113:\n    /* \"#utility.yul\":646:648   */\n  0x20\n    /* \"#utility.yul\":638:644   */\n  dup3\n    /* \"#utility.yul\":635:649   */\n  lt\n    /* \"#utility.yul\":615:633   */\n  dup2\n    /* \"#utility.yul\":612:650   */\n  sub\n    /* \"#utility.yul\":609:693   */\n  tag_114\n  jumpi\n    /* \"#utility.yul\":665:683   */\n  tag_115\n  tag_83\n  jump\t// in\ntag_115:\n    /* \"#utility.yul\":609:693   */\ntag_114:\n    /* \"#utility.yul\":430:699   */\n  pop\n    /* \"#utility.yul\":379:699   */\n  swap2\n  swap1\n  pop\n  jump\t// out\n    /* \"#utility.yul\":705:782   */\ntag_84:\n    /* \"#utility.yul\":742:749   */\n  0x00\n    /* \"#utility.yul\":771:776   */\n  dup2\n    /* \"#utility.yul\":760:776   */\n  swap1\n  pop\n    /* \"#utility.yul\":705:782   */\n  swap2\n  swap1\n  pop\n  jump\t// out\n    /* \"#utility.yul\":788:968   */\ntag_85:\n    /* \"#utility.yul\":836:913   */\n  0x4e487b7100000000000000000000000000000000000000000000000000000000\n    /* \"#utility.yul\":833:834   */\n  0x00\n    /* \"#utility.yul\":826:914   */\n  mstore\n    /* \"#utility.yul\":933:937   */\n  0x11\n    /* \"#utility.yul\":930:931   */\n  0x04\n    /* \"#utility.yul\":923:938   */\n  mstore\n    /* \"#utility.yul\":957:961   */\n  0x24\n    /* \"#utility.yul\":954:955   */\n  0x00\n    /* \"#utility.yul\":947:962   */\n  revert\n    /* \"#utility.yul\":974:1165   */\ntag_37:\n    /* \"#utility.yul\":1014:1017   */\n  0x00\n    /* \"#utility.yul\":1033:1053   */\n  tag_119\n    /* \"#utility.yul\":1051:1052   */\n  dup3\n    /* \"#utility.yul\":1033:1053   */\n  tag_84\n  jump\t// in\ntag_119:\n    /* \"#utility.yul\":1028:1053   */\n  swap2\n  pop\n    /* \"#utility.yul\":1067:1087   */\n  tag_120\n    /* \"#utility.yul\":1085:1086   */\n  dup4\n    /* \"#utility.yul\":1067:1087   */\n  tag_84\n  jump\t// in\ntag_120:\n    /* \"#utility.yul\":1062:1087   */\n  swap3\n  pop\n    /* \"#utility.yul\":1110:1111   */\n  dup3\n    /* \"#utility.yul\":1107:1108   */\n  dup3\n    /* \"#utility.yul\":1103:1112   */\n  add\n    /* \"#utility.yul\":1096:1112   */\n  swap1\n  pop\n    /* \"#utility.yul\":1131:1134   */\n  dup1\n    /* \"#utility.yul\":1128:1129   */\n  dup3\n    /* \"#utility.yul\":1125:1135   */\n  gt\n    /* \"#utility.yul\":1122:1158   */\n  iszero\n  tag_121\n  jumpi\n    /* \"#utility.yul\":1138:1156   */\n  tag_122\n  tag_85\n  jump\t// in\ntag_122:\n    /* \"#utility.yul\":1122:1158   */\ntag_121:\n    /* \"#utility.yul\":974:1165   */\n  swap3\n  swap2\n  pop\n  pop\n  jump\t// out\n    /* \"#utility.yul\":1171:1248   */\ntag_86:\n    /* \"#utility.yul\":1208:1215   */\n  0x00\n    /* \"#utility.yul\":1237:1242   */\n  dup2\n    /* \"#utility.yul\":1226:1242   */\n  swap1\n  pop\n    /* \"#utility.yul\":1171:1248   */\n  swap2\n  swap1\n  pop\n  jump\t// out\n    /* \"#utility.yul\":1254:1333   */\ntag_87:\n    /* \"#utility.yul\":1293:1300   */\n  0x00\n    /* \"#utility.yul\":1322:1327   */\n  dup2\n    /* \"#utility.yul\":1311:1327   */\n  swap1\n  pop\n    /* \"#utility.yul\":1254:1333   */\n  swap2\n  swap1\n  pop\n  jump\t// out\n    /* \"#utility.yul\":1339:1496   */\ntag_88:\n    /* \"#utility.yul\":1444:1489   */\n  tag_126\n    /* \"#utility.yul\":1464:1488   */\n  tag_127\n    /* \"#utility.yul\":1482:1487   */\n  dup3\n    /* \"#utility.yul\":1464:1488   */\n  tag_86\n  jump\t// in\ntag_127:\n    /* \"#utility.yul\":1444:1489   */\n  tag_87\n  jump\t// in\ntag_126:\n    /* \"#utility.yul\":1439:1442   */\n  dup3\n    /* \"#utility.yul\":1432:1490   */\n  mstore\n    /* \"#utility.yul\":1339:1496   */\n  pop\n  pop\n  jump\t// out\n    /* \"#utility.yul\":1502:1899   */\ntag_49:\n    /* \"#utility.yul\":1642:1645   */\n  0x00\n    /* \"#utility.yul\":1657:1732   */\n  tag_129\n    /* \"#utility.yul\":1728:1731   */\n  dup3\n    /* \"#utility.yul\":1719:1725   */\n  dup6\n    /* \"#utility.yul\":1657:1732   */\n  tag_88\n  jump\t// in\ntag_129:\n    /* \"#utility.yul\":1757:1759   */\n  0x20\n    /* \"#utility.yul\":1752:1755   */\n  dup3\n    /* \"#utility.yul\":1748:1760   */\n  add\n    /* \"#utility.yul\":1741:1760   */\n  swap2\n  pop\n    /* \"#utility.yul\":1770:1845   */\n  tag_130\n    /* \"#utility.yul\":1841:1844   */\n  dup3\n    /* \"#utility.yul\":1832:1838   */\n  dup5\n    /* \"#utility.yul\":1770:1845   */\n  tag_88\n  jump\t// in\ntag_130:\n    /* \"#utility.yul\":1870:1872   */\n  0x20\n    /* \"#utility.yul\":1865:1868   */\n  dup3\n    /* \"#utility.yul\":1861:1873   */\n  add\n    /* \"#utility.yul\":1854:1873   */\n  swap2\n  pop\n    /* \"#utility.yul\":1890:1893   */\n  dup2\n    /* \"#utility.yul\":1883:1893   */\n  swap1\n  pop\n    /* \"#utility.yul\":1502:1899   */\n  swap4\n  swap3\n  pop\n  pop\n  pop\n  jump\t// out\n    /* \"#utility.yul\":1905:2138   */\ntag_58:\n    /* \"#utility.yul\":1944:1947   */\n  0x00\n    /* \"#utility.yul\":1967:1991   */\n  tag_132\n    /* \"#utility.yul\":1985:1990   */\n  dup3\n    /* \"#utility.yul\":1967:1991   */\n  tag_84\n  jump\t// in\ntag_132:\n    /* \"#utility.yul\":1958:1991   */\n  swap2\n  pop\n    /* \"#utility.yul\":2013:2079   */\n  0xffffffffffffffffffffffffffffffffffffffffffffffffffffffffffffffff\n    /* \"#utility.yul\":2006:2011   */\n  dup3\n    /* \"#utility.yul\":2003:2080   */\n  sub\n    /* \"#utility.yul\":2000:2103   */\n  tag_133\n  jumpi\n    /* \"#utility.yul\":2083:2101   */\n  tag_134\n  tag_85\n  jump\t// in\ntag_134:\n    /* \"#utility.yul\":2000:2103   */\ntag_133:\n    /* \"#utility.yul\":2130:2131   */\n  0x01\n    /* \"#utility.yul\":2123:2128   */\n  dup3\n    /* \"#utility.yul\":2119:2132   */\n  add\n    /* \"#utility.yul\":2112:2132   */\n  swap1\n  pop\n    /* \"#utility.yul\":1905:2138   */\n  swap2\n  swap1\n  pop\n  jump\t// out\n    /* \"#utility.yul\":2144:2243   */\ntag_89:\n    /* \"#utility.yul\":2196:2202   */\n  0x00\n    /* \"#utility.yul\":2230:2235   */\n  dup2\n    /* \"#utility.yul\":2224:2236   */\n  mload\n    /* \"#utility.yul\":2214:2236   */\n  swap1\n  pop\n    /* \"#utility.yul\":2144:2243   */\n  swap2\n  swap1\n  pop\n  jump\t// out\n    /* \"#utility.yul\":2249:2397   */\ntag_90:\n    /* \"#utility.yul\":2351:2362   */\n  0x00\n    /* \"#utility.yul\":2388:2391   */\n  dup2\n    /* \"#utility.yul\":2373:2391   */\n  swap1\n  pop\n    /* \"#utility.yul\":2249:2397   */\n  swap3\n  swap2\n  pop\n  pop\n  jump\t// out\n    /* \"#utility.yul\":2403:2649   */\ntag_91:\n    /* \"#utility.yul\":2484:2485   */\n  0x00\n    /* \"#utility.yul\":2494:2607   */\ntag_138:\n    /* \"#utility.yul\":2508:2514   */\n  dup4\n    /* \"#utility.yul\":2505:2506   */\n  dup2\n    /* \"#utility.yul\":2502:2515   */\n  lt\n    /* \"#utility.yul\":2494:2607   */\n  iszero\n  tag_140\n  jumpi\n    /* \"#utility.yul\":2593:2594   */\n  dup1\n    /* \"#utility.yul\":2588:2591   */\n  dup3\n    /* \"#utility.yul\":2584:2595   */\n  add\n    /* \"#utility.yul\":2578:2596   */\n  mload\n    /* \"#utility.yul\":2574:2575   */\n  dup2\n    /* \"#utility.yul\":2569:2572   */\n  dup5\n    /* \"#utility.yul\":2565:2576   */\n  add\n    /* \"#utility.yul\":2558:2597   */\n  mstore\n    /* \"#utility.yul\":2530:2532   */\n  0x20\n    /* \"#utility.yul\":2527:2528   */\n  dup2\n    /* \"#utility.yul\":2523:2533   */\n  add\n    /* \"#utility.yul\":2518:2533   */\n  swap1\n  pop\n    /* \"#utility.yul\":2494:2607   */\n  jump(tag_138)\ntag_140:\n    /* \"#utility.yul\":2641:2642   */\n  0x00\n    /* \"#utility.yul\":2632:2638   */\n  dup5\n    /* \"#utility.yul\":2627:2630   */\n  dup5\n    /* \"#utility.yul\":2623:2639   */\n  add\n    /* \"#utility.yul\":2616:2643   */\n  mstore\n    /* \"#utility.yul\":2465:2649   */\n  pop\n    /* \"#utility.yul\":2403:2649   */\n  pop\n  pop\n  pop\n  jump\t// out\n    /* \"#utility.yul\":2655:3045   */\ntag_92:\n    /* \"#utility.yul\":2761:2764   */\n  0x00\n    /* \"#utility.yul\":2789:2828   */\n  tag_142\n    /* \"#utility.yul\":2822:2827   */\n  dup3\n    /* \"#utility.yul\":2789:2828   */\n  tag_89\n  jump\t// in\ntag_142:\n    /* \"#utility.yul\":2844:2933   */\n  tag_143\n    /* \"#utility.yul\":2926:2932   */\n  dup2\n    /* \"#utility.yul\":2921:2924   */\n  dup6\n    /* \"#utility.yul\":2844:2933   */\n  tag_90\n  jump\t// in\ntag_143:\n    /* \"#utility.yul\":2837:2933   */\n  swap4\n  pop\n    /* \"#utility.yul\":2942:3007   */\n  tag_144\n    /* \"#utility.yul\":3000:3006   */\n  dup2\n    /* \"#utility.yul\":2995:2998   */\n  dup6\n    /* \"#utility.yul\":2988:2992   */\n  0x20\n    /* \"#utility.yul\":2981:2986   */\n  dup7\n    /* \"#utility.yul\":2977:2993   */\n  add\n    /* \"#utility.yul\":2942:3007   */\n  tag_91\n  jump\t// in\ntag_144:\n    /* \"#utility.yul\":3032:3038   */\n  dup1\n    /* \"#utility.yul\":3027:3030   */\n  dup5\n    /* \"#utility.yul\":3023:3039   */\n  add\n    /* \"#utility.yul\":3016:3039   */\n  swap2\n  pop\n    /* \"#utility.yul\":2765:3045   */\n  pop\n    /* \"#utility.yul\":2655:3045   */\n  swap3\n  swap2\n  pop\n  pop\n  jump\t// out\n    /* \"#utility.yul\":3051:3326   */\ntag_64:\n    /* \"#utility.yul\":3183:3186   */\n  0x00\n    /* \"#utility.yul\":3205:3300   */\n  tag_146\n    /* \"#utility.yul\":3296:3299   */\n  dup3\n    /* \"#utility.yul\":3287:3293   */\n  dup5\n    /* \"#utility.yul\":3205:3300   */\n  tag_92\n  jump\t// in\ntag_146:\n    /* \"#utility.yul\":3198:3300   */\n  swap2\n  pop\n    /* \"#utility.yul\":3317:3320   */\n  dup2\n    /* \"#utility.yul\":3310:3320   */\n  swap1\n  pop\n    /* \"#utility.yul\":3051:3326   */\n  swap3\n  swap2\n  pop\n  pop\n  jump\t// out\n    /* \"#utility.yul\":3332:3512   */\ntag_93:\n    /* \"#utility.yul\":3380:3457   */\n  0x4e487b7100000000000000000000000000000000000000000000000000000000\n    /* \"#utility.yul\":3377:3378   */\n  0x00\n    /* \"#utility.yul\":3370:3458   */\n  mstore\n    /* \"#utility.yul\":3477:3481   */\n  0x41\n    /* \"#utility.yul\":3474:3475   */\n  0x04\n    /* \"#utility.yul\":3467:3482   */\n  mstore\n    /* \"#utility.yul\":3501:3505   */\n  0x24\n    /* \"#utility.yul\":3498:3499   */\n  0x00\n    /* \"#utility.yul\":3491:3506   */\n  revert\n    /* \"#utility.yul\":3518:3659   */\ntag_94:\n    /* \"#utility.yul\":3567:3571   */\n  0x00\n    /* \"#utility.yul\":3590:3593   */\n  dup2\n    /* \"#utility.yul\":3582:3593   */\n  swap1\n  pop\n    /* \"#utility.yul\":3613:3616   */\n  dup2\n    /* \"#utility.yul\":3610:3611   */\n  0x00\n    /* \"#utility.yul\":3603:3617   */\n  mstore\n    /* \"#utility.yul\":3647:3651   */\n  0x20\n    /* \"#utility.yul\":3644:3645   */\n  0x00\n    /* \"#utility.yul\":3634:3652   */\n  keccak256\n    /* \"#utility.yul\":3626:3652   */\n  swap1\n  pop\n    /* \"#utility.yul\":3518:3659   */\n  swap2\n  swap1\n  pop\n  jump\t// out\n    /* \"#utility.yul\":3665:3758   */\ntag_95:\n    /* \"#utility.yul\":3702:3708   */\n  0x00\n    /* \"#utility.yul\":3749:3751   */\n  0x20\n    /* \"#utility.yul\":3744:3746   */\n  0x1f\n    /* \"#utility.yul\":3737:3742   */\n  dup4\n    /* \"#utility.yul\":3733:3747   */\n  add\n    /* \"#utility.yul\":3729:3752   */\n  div\n    /* \"#utility.yul\":3719:3752   */\n  swap1\n  pop\n    /* \"#utility.yul\":3665:3758   */\n  swap2\n  swap1\n  pop\n  jump\t// out\n    /* \"#utility.yul\":3764:3871   */\ntag_96:\n    /* \"#utility.yul\":3808:3816   */\n  0x00\n    /* \"#utility.yul\":3858:3863   */\n  dup3\n    /* \"#utility.yul\":3852:3856   */\n  dup3\n    /* \"#utility.yul\":3848:3864   */\n  shl\n    /* \"#utility.yul\":3827:3864   */\n  swap1\n  pop\n    /* \"#utility.yul\":3764:3871   */\n  swap3\n  swap2\n  pop\n  pop\n  jump\t// out\n    /* \"#utility.yul\":3877:4270   */\ntag_97:\n    /* \"#utility.yul\":3946:3952   */\n  0x00\n    /* \"#utility.yul\":3996:3997   */\n  0x08\n    /* \"#utility.yul\":3984:3994   */\n  dup4\n    /* \"#utility.yul\":3980:3998   */\n  mul\n    /* \"#utility.yul\":4019:4116   */\n  tag_152\n    /* \"#utility.yul\":4049:4115   */\n  0xffffffffffffffffffffffffffffffffffffffffffffffffffffffffffffffff\n    /* \"#utility.yul\":4038:4047   */\n  dup3\n    /* \"#utility.yul\":4019:4116   */\n  tag_96\n  jump\t// in\ntag_152:\n    /* \"#utility.yul\":4137:4176   */\n  tag_153\n    /* \"#utility.yul\":4167:4175   */\n  dup7\n    /* \"#utility.yul\":4156:4165   */\n  dup4\n    /* \"#utility.yul\":4137:4176   */\n  tag_96\n  jump\t// in\ntag_153:\n    /* \"#utility.yul\":4125:4176   */\n  swap6\n  pop\n    /* \"#utility.yul\":4209:4213   */\n  dup1\n    /* \"#utility.yul\":4205:4214   */\n  not\n    /* \"#utility.yul\":4198:4203   */\n  dup5\n    /* \"#utility.yul\":4194:4215   */\n  and\n    /* \"#utility.yul\":4185:4215   */\n  swap4\n  pop\n    /* \"#utility.yul\":4258:4262   */\n  dup1\n    /* \"#utility.yul\":4248:4256   */\n  dup7\n    /* \"#utility.yul\":4244:4263   */\n  and\n    /* \"#utility.yul\":4237:4242   */\n  dup5\n    /* \"#utility.yul\":4234:4264   */\n  or\n    /* \"#utility.yul\":4224:4264   */\n  swap3\n  pop\n    /* \"#utility.yul\":3953:4270   */\n  pop\n  pop\n    /* \"#utility.yul\":3877:4270   */\n  swap4\n  swap3\n  pop\n  pop\n  pop\n  jump\t// out\n    /* \"#utility.yul\":4276:4336   */\ntag_98:\n    /* \"#utility.yul\":4304:4307   */\n  0x00\n    /* \"#utility.yul\":4325:4330   */\n  dup2\n    /* \"#utility.yul\":4318:4330   */\n  swap1\n  pop\n    /* \"#utility.yul\":4276:4336   */\n  swap2\n  swap1\n  pop\n  jump\t// out\n    /* \"#utility.yul\":4342:4484   */\ntag_99:\n    /* \"#utility.yul\":4392:4401   */\n  0x00\n    /* \"#utility.yul\":4425:4478   */\n  tag_156\n    /* \"#utility.yul\":4443:4477   */\n  tag_157\n    /* \"#utility.yul\":4452:4476   */\n  tag_158\n    /* \"#utility.yul\":4470:4475   */\n  dup5\n    /* \"#utility.yul\":4452:4476   */\n  tag_84\n  jump\t// in\ntag_158:\n    /* \"#utility.yul\":4443:4477   */\n  tag_98\n  jump\t// in\ntag_157:\n    /* \"#utility.yul\":4425:4478   */\n  tag_84\n  jump\t// in\ntag_156:\n    /* \"#utility.yul\":4412:4478   */\n  swap1\n  pop\n    /* \"#utility.yul\":4342:4484   */\n  swap2\n  swap1\n  pop\n  jump\t// out\n    /* \"#utility.yul\":4490:4565   */\ntag_100:\n    /* \"#utility.yul\":4533:4536   */\n  0x00\n    /* \"#utility.yul\":4554:4559   */\n  dup2\n    /* \"#utility.yul\":4547:4559   */\n  swap1\n  pop\n    /* \"#utility.yul\":4490:4565   */\n  swap2\n  swap1\n  pop\n  jump\t// out\n    /* \"#utility.yul\":4571:4840   */\ntag_101:\n    /* \"#utility.yul\":4681:4720   */\n  tag_161\n    /* \"#utility.yul\":4712:4719   */\n  dup4\n    /* \"#utility.yul\":4681:4720   */\n  tag_99\n  jump\t// in\ntag_161:\n    /* \"#utility.yul\":4742:4833   */\n  tag_162\n    /* \"#utility.yul\":4791:4832   */\n  tag_163\n    /* \"#utility.yul\":4815:4831   */\n  dup3\n    /* \"#utility.yul\":4791:4832   */\n  tag_100\n  jump\t// in\ntag_163:\n    /* \"#utility.yul\":4783:4789   */\n  dup5\n    /* \"#utility.yul\":4776:4780   */\n  dup5\n    /* \"#utility.yul\":4770:4781   */\n  sload\n    /* \"#utility.yul\":4742:4833   */\n  tag_97\n  jump\t// in\ntag_162:\n    /* \"#utility.yul\":4736:4740   */\n  dup3\n    /* \"#utility.yul\":4729:4834   */\n  sstore\n    /* \"#utility.yul\":4647:4840   */\n  pop\n    /* \"#utility.yul\":4571:4840   */\n  pop\n  pop\n  pop\n  jump\t// out\n    /* \"#utility.yul\":4846:4919   */\ntag_102:\n    /* \"#utility.yul\":4891:4894   */\n  0x00\n    /* \"#utility.yul\":4846:4919   */\n  swap1\n  jump\t// out\n    /* \"#utility.yul\":4925:5114   */\ntag_103:\n    /* \"#utility.yul\":5002:5034   */\n  tag_166\n  tag_102\n  jump\t// in\ntag_166:\n    /* \"#utility.yul\":5043:5108   */\n  tag_167\n    /* \"#utility.yul\":5101:5107   */\n  dup2\n    /* \"#utility.yul\":5093:5099   */\n  dup5\n    /* \"#utility.yul\":5087:5091   */\n  dup5\n    /* \"#utility.yul\":5043:5108   */\n  tag_101\n  jump\t// in\ntag_167:\n    /* \"#utility.yul\":4978:5114   */\n  pop\n    /* \"#utility.yul\":4925:5114   */\n  pop\n  pop\n  jump\t// out\n    /* \"#utility.yul\":5120:5306   */\ntag_104:\n    /* \"#utility.yul\":5180:5300   */\ntag_169:\n    /* \"#utility.yul\":5197:5200   */\n  dup2\n    /* \"#utility.yul\":5190:5195   */\n  dup2\n    /* \"#utility.yul\":5187:5201   */\n  lt\n    /* \"#utility.yul\":5180:5300   */\n  iszero\n  tag_171\n  jumpi\n    /* \"#utility.yul\":5251:5290   */\n  tag_172\n    /* \"#utility.yul\":5288:5289   */\n  0x00\n    /* \"#utility.yul\":5281:5286   */\n  dup3\n    /* \"#utility.yul\":5251:5290   */\n  tag_103\n  jump\t// in\ntag_172:\n    /* \"#utility.yul\":5224:5225   */\n  0x01\n    /* \"#utility.yul\":5217:5222   */\n  dup2\n    /* \"#utility.yul\":5213:5226   */\n  add\n    /* \"#utility.yul\":5204:5226   */\n  swap1\n  pop\n    /* \"#utility.yul\":5180:5300   */\n  jump(tag_169)\ntag_171:\n    /* \"#utility.yul\":5120:5306   */\n  pop\n  pop\n  jump\t// out\n    /* \"#utility.yul\":5312:5855   */\ntag_105:\n    /* \"#utility.yul\":5413:5415   */\n  0x1f\n    /* \"#utility.yul\":5408:5411   */\n  dup3\n    /* \"#utility.yul\":5405:5416   */\n  gt\n    /* \"#utility.yul\":5402:5848   */\n  iszero\n  tag_174\n  jumpi\n    /* \"#utility.yul\":5447:5485   */\n  tag_175\n    /* \"#utility.yul\":5479:5484   */\n  dup2\n    /* \"#utility.yul\":5447:5485   */\n  tag_94\n  jump\t// in\ntag_175:\n    /* \"#utility.yul\":5531:5560   */\n  tag_176\n    /* \"#utility.yul\":5549:5559   */\n  dup5\n    /* \"#utility.yul\":5531:5560   */\n  tag_95\n  jump\t// in\ntag_176:\n    /* \"#utility.yul\":5521:5529   */\n  dup2\n    /* \"#utility.yul\":5517:5561   */\n  add\n    /* \"#utility.yul\":5714:5716   */\n  0x20\n    /* \"#utility.yul\":5702:5712   */\n  dup6\n    /* \"#utility.yul\":5699:5717   */\n  lt\n    /* \"#utility.yul\":5696:5745   */\n  iszero\n  tag_177\n  jumpi\n    /* \"#utility.yul\":5735:5743   */\n  dup2\n    /* \"#utility.yul\":5720:5743   */\n  swap1\n  pop\n    /* \"#utility.yul\":5696:5745   */\ntag_177:\n    /* \"#utility.yul\":5758:5838   */\n  tag_178\n    /* \"#utility.yul\":5814:5836   */\n  tag_179\n    /* \"#utility.yul\":5832:5835   */\n  dup6\n    /* \"#utility.yul\":5814:5836   */\n  tag_95\n  jump\t// in\ntag_179:\n    /* \"#utility.yul\":5804:5812   */\n  dup4\n    /* \"#utility.yul\":5800:5837   */\n  add\n    /* \"#utility.yul\":5787:5798   */\n  dup3\n    /* \"#utility.yul\":5758:5838   */\n  tag_104\n  jump\t// in\ntag_178:\n    /* \"#utility.yul\":5417:5848   */\n  pop\n  pop\n    /* \"#utility.yul\":5402:5848   */\ntag_174:\n    /* \"#utility.yul\":5312:5855   */\n  pop\n  pop\n  pop\n  jump\t// out\n    /* \"#utility.yul\":5861:5978   */\ntag_106:\n    /* \"#utility.yul\":5915:5923   */\n  0x00\n    /* \"#utility.yul\":5965:5970   */\n  dup3\n    /* \"#utility.yul\":5959:5963   */\n  dup3\n    /* \"#utility.yul\":5955:5971   */\n  shr\n    /* \"#utility.yul\":5934:5971   */\n  swap1\n  pop\n    /* \"#utility.yul\":5861:5978   */\n  swap3\n  swap2\n  pop\n  pop\n  jump\t// out\n    /* \"#utility.yul\":5984:6153   */\ntag_107:\n    /* \"#utility.yul\":6028:6034   */\n  0x00\n    /* \"#utility.yul\":6061:6112   */\n  tag_182\n    /* \"#utility.yul\":6109:6110   */\n  0x00\n    /* \"#utility.yul\":6105:6111   */\n  not\n    /* \"#utility.yul\":6097:6102   */\n  dup5\n    /* \"#utility.yul\":6094:6095   */\n  0x08\n    /* \"#utility.yul\":6090:6103   */\n  mul\n    /* \"#utility.yul\":6061:6112   */\n  tag_106\n  jump\t// in\ntag_182:\n    /* \"#utility.yul\":6057:6113   */\n  not\n    /* \"#utility.yul\":6142:6146   */\n  dup1\n    /* \"#utility.yul\":6136:6140   */\n  dup4\n    /* \"#utility.yul\":6132:6147   */\n  and\n    /* \"#utility.yul\":6122:6147   */\n  swap2\n  pop\n    /* \"#utility.yul\":6035:6153   */\n  pop\n    /* \"#utility.yul\":5984:6153   */\n  swap3\n  swap2\n  pop\n  pop\n  jump\t// out\n    /* \"#utility.yul\":6158:6453   */\ntag_108:\n    /* \"#utility.yul\":6234:6238   */\n  0x00\n    /* \"#utility.yul\":6380:6409   */\n  tag_184\n    /* \"#utility.yul\":6405:6408   */\n  dup4\n    /* \"#utility.yul\":6399:6403   */\n  dup4\n    /* \"#utility.yul\":6380:6409   */\n  tag_107\n  jump\t// in\ntag_184:\n    /* \"#utility.yul\":6372:6409   */\n  swap2\n  pop\n    /* \"#utility.yul\":6442:6445   */\n  dup3\n    /* \"#utility.yul\":6439:6440   */\n  0x02\n    /* \"#utility.yul\":6435:6446   */\n  mul\n    /* \"#utility.yul\":6429:6433   */\n  dup3\n    /* \"#utility.yul\":6426:6447   */\n  or\n    /* \"#utility.yul\":6418:6447   */\n  swap1\n  pop\n    /* \"#utility.yul\":6158:6453   */\n  swap3\n  swap2\n  pop\n  pop\n  jump\t// out\n    /* \"#utility.yul\":6458:7853   */\ntag_69:\n    /* \"#utility.yul\":6575:6612   */\n  tag_186\n    /* \"#utility.yul\":6608:6611   */\n  dup3\n    /* \"#utility.yul\":6575:6612   */\n  tag_89\n  jump\t// in\ntag_186:\n    /* \"#utility.yul\":6677:6695   */\n  0xffffffffffffffff\n    /* \"#utility.yul\":6669:6675   */\n  dup2\n    /* \"#utility.yul\":6666:6696   */\n  gt\n    /* \"#utility.yul\":6663:6719   */\n  iszero\n  tag_187\n  jumpi\n    /* \"#utility.yul\":6699:6717   */\n  tag_188\n  tag_93\n  jump\t// in\ntag_188:\n    /* \"#utility.yul\":6663:6719   */\ntag_187:\n    /* \"#utility.yul\":6743:6781   */\n  tag_189\n    /* \"#utility.yul\":6775:6779   */\n  dup3\n    /* \"#utility.yul\":6769:6780   */\n  sload\n    /* \"#utility.yul\":6743:6781   */\n  tag_19\n  jump\t// in\ntag_189:\n    /* \"#utility.yul\":6828:6895   */\n  tag_190\n    /* \"#utility.yul\":6888:6894   */\n  dup3\n    /* \"#utility.yul\":6880:6886   */\n  dup3\n    /* \"#utility.yul\":6874:6878   */\n  dup6\n    /* \"#utility.yul\":6828:6895   */\n  tag_105\n  jump\t// in\ntag_190:\n    /* \"#utility.yul\":6922:6923   */\n  0x00\n    /* \"#utility.yul\":6946:6950   */\n  0x20\n    /* \"#utility.yul\":6933:6950   */\n  swap1\n  pop\n    /* \"#utility.yul\":6978:6980   */\n  0x1f\n    /* \"#utility.yul\":6970:6976   */\n  dup4\n    /* \"#utility.yul\":6967:6981   */\n  gt\n    /* \"#utility.yul\":6995:6996   */\n  0x01\n    /* \"#utility.yul\":6990:7608   */\n  dup2\n  eq\n  tag_192\n  jumpi\n    /* \"#utility.yul\":7652:7653   */\n  0x00\n    /* \"#utility.yul\":7669:7675   */\n  dup5\n    /* \"#utility.yul\":7666:7743   */\n  iszero\n  tag_193\n  jumpi\n    /* \"#utility.yul\":7718:7727   */\n  dup3\n    /* \"#utility.yul\":7713:7716   */\n  dup8\n    /* \"#utility.yul\":7709:7728   */\n  add\n    /* \"#utility.yul\":7703:7729   */\n  mload\n    /* \"#utility.yul\":7694:7729   */\n  swap1\n  pop\n    /* \"#utility.yul\":7666:7743   */\ntag_193:\n    /* \"#utility.yul\":7769:7836   */\n  tag_194\n    /* \"#utility.yul\":7829:7835   */\n  dup6\n    /* \"#utility.yul\":7822:7827   */\n  dup3\n    /* \"#utility.yul\":7769:7836   */\n  tag_108\n  jump\t// in\ntag_194:\n    /* \"#utility.yul\":7763:7767   */\n  dup7\n    /* \"#utility.yul\":7756:7837   */\n  sstore\n    /* \"#utility.yul\":7625:7847   */\n  pop\n    /* \"#utility.yul\":6960:7847   */\n  jump(tag_191)\n    /* \"#utility.yul\":6990:7608   */\ntag_192:\n    /* \"#utility.yul\":7042:7046   */\n  0x1f\n    /* \"#utility.yul\":7038:7047   */\n  not\n    /* \"#utility.yul\":7030:7036   */\n  dup5\n    /* \"#utility.yul\":7026:7048   */\n  and\n    /* \"#utility.yul\":7076:7113   */\n  tag_195\n    /* \"#utility.yul\":7108:7112   */\n  dup7\n    /* \"#utility.yul\":7076:7113   */\n  tag_94\n  jump\t// in\ntag_195:\n    /* \"#utility.yul\":7135:7136   */\n  0x00\n    /* \"#utility.yul\":7149:7357   */\ntag_196:\n    /* \"#utility.yul\":7163:7170   */\n  dup3\n    /* \"#utility.yul\":7160:7161   */\n  dup2\n    /* \"#utility.yul\":7157:7171   */\n  lt\n    /* \"#utility.yul\":7149:7357   */\n  iszero\n  tag_198\n  jumpi\n    /* \"#utility.yul\":7242:7251   */\n  dup5\n    /* \"#utility.yul\":7237:7240   */\n  dup10\n    /* \"#utility.yul\":7233:7252   */\n  add\n    /* \"#utility.yul\":7227:7253   */\n  mload\n    /* \"#utility.yul\":7219:7225   */\n  dup3\n    /* \"#utility.yul\":7212:7254   */\n  sstore\n    /* \"#utility.yul\":7293:7294   */\n  0x01\n    /* \"#utility.yul\":7285:7291   */\n  dup3\n    /* \"#utility.yul\":7281:7295   */\n  add\n    /* \"#utility.yul\":7271:7295   */\n  swap2\n  pop\n    /* \"#utility.yul\":7340:7342   */\n  0x20\n    /* \"#utility.yul\":7329:7338   */\n  dup6\n    /* \"#utility.yul\":7325:7343   */\n  add\n    /* \"#utility.yul\":7312:7343   */\n  swap5\n  pop\n    /* \"#utility.yul\":7186:7190   */\n  0x20\n    /* \"#utility.yul\":7183:7184   */\n  dup2\n    /* \"#utility.yul\":7179:7191   */\n  add\n    /* \"#utility.yul\":7174:7191   */\n  swap1\n  pop\n    /* \"#utility.yul\":7149:7357   */\n  jump(tag_196)\ntag_198:\n    /* \"#utility.yul\":7385:7391   */\n  dup7\n    /* \"#utility.yul\":7376:7383   */\n  dup4\n    /* \"#utility.yul\":7373:7392   */\n  lt\n    /* \"#utility.yul\":7370:7549   */\n  iszero\n  tag_199\n  jumpi\n    /* \"#utility.yul\":7443:7452   */\n  dup5\n    /* \"#utility.yul\":7438:7441   */\n  dup10\n    /* \"#utility.yul\":7434:7453   */\n  add\n    /* \"#utility.yul\":7428:7454   */\n  mload\n    /* \"#utility.yul\":7486:7534   */\n  tag_200\n    /* \"#utility.yul\":7528:7532   */\n  0x1f\n    /* \"#utility.yul\":7520:7526   */\n  dup10\n    /* \"#utility.yul\":7516:7533   */\n  and\n    /* \"#utility.yul\":7505:7514   */\n  dup3\n    /* \"#utility.yul\":7486:7534   */\n  tag_107\n  jump\t// in\ntag_200:\n    /* \"#utility.yul\":7478:7484   */\n  dup4\n    /* \"#utility.yul\":7471:7535   */\n  sstore\n    /* \"#utility.yul\":7393:7549   */\n  pop\n    /* \"#utility.yul\":7370:7549   */\ntag_199:\n    /* \"#utility.yul\":7595:7596   */\n  0x01\n    /* \"#utility.yul\":7591:7592   */\n  0x02\n    /* \"#utility.yul\":7583:7589   */\n  dup9\n    /* \"#utility.yul\":7579:7593   */\n  mul\n    /* \"#utility.yul\":7575:7597   */\n  add\n    /* \"#utility.yul\":7569:7573   */\n  dup9\n    /* \"#utility.yul\":7562:7598   */\n  sstore\n    /* \"#utility.yul\":6997:7608   */\n  pop\n  pop\n  pop\n    /* \"#utility.yul\":6960:7847   */\ntag_191:\n  pop\n    /* \"#utility.yul\":6550:7853   */\n  pop\n  pop\n  pop\n    /* \"#utility.yul\":6458:7853   */\n  pop\n  pop\n  jump\t// out\n    /* \"contracts/MerklTree.sol\":74:2176  contract Tree {... */\ntag_8:\n  dataSize(sub_0)\n  dup1\n  dataOffset(sub_0)\n  0x00\n  codecopy\n  0x00\n  return\nstop\n\nsub_0: assembly {\n        /* \"contracts/MerklTree.sol\":74:2176  contract Tree {... */\n      mstore(0x40, 0x80)\n      callvalue\n      dup1\n      iszero\n      tag_1\n      jumpi\n      0x00\n      dup1\n      revert\n    tag_1:\n      pop\n      jumpi(tag_2, lt(calldatasize, 0x04))\n      shr(0xe0, calldataload(0x00))\n      dup1\n      0x2637cccf\n      eq\n      tag_3\n      jumpi\n      dup1\n      0x501895ae\n      eq\n      tag_4\n      jumpi\n      dup1\n      0x52de70af\n      eq\n      tag_5\n      jumpi\n      dup1\n      0x6a11b2a8\n      eq\n      tag_6\n      jumpi\n    tag_2:\n      0x00\n      dup1\n      revert\n        /* \"contracts/MerklTree.sol\":1705:2174  function verify(string memory transaction, uint index, bytes32 root, bytes32[] memory proof) public pure returns(bool){... */\n    tag_3:\n      tag_7\n      0x04\n      dup1\n      calldatasize\n      sub\n      dup2\n      add\n      swap1\n      tag_8\n      swap2\n      swap1\n      tag_9\n      jump\t// in\n    tag_8:\n      tag_10\n      jump\t// in\n    tag_7:\n      mload(0x40)\n      tag_11\n      swap2\n      swap1\n      tag_12\n      jump\t// in\n    tag_11:\n      mload(0x40)\n      dup1\n      swap2\n      sub\n      swap1\n      return\n        /* \"contracts/MerklTree.sol\":92:115  bytes32[] public hashes */\n    tag_4:\n      tag_13\n      0x04\n      dup1\n      calldatasize\n      sub\n      dup2\n      add\n      swap1\n      tag_14\n      swap2\n      swap1\n      tag_15\n      jump\t// in\n    tag_14:\n      tag_16\n      jump\t// in\n    tag_13:\n      mload(0x40)\n      tag_17\n      swap2\n      swap1\n      tag_18\n      jump\t// in\n    tag_17:\n      mload(0x40)\n      dup1\n      swap2\n      sub\n      swap1\n      return\n        /* \"contracts/MerklTree.sol\":1363:1485  function makeHash(string memory input) public pure returns(bytes32) {... */\n    tag_5:\n      tag_19\n      0x04\n      dup1\n      calldatasize\n      sub\n      dup2\n      add\n      swap1\n      tag_20\n      swap2\n      swap1\n      tag_21\n      jump\t// in\n    tag_20:\n      tag_22\n      jump\t// in\n    tag_19:\n      mload(0x40)\n      tag_23\n      swap2\n      swap1\n      tag_18\n      jump\t// in\n    tag_23:\n      mload(0x40)\n      dup1\n      swap2\n      sub\n      swap1\n      return\n        /* \"contracts/MerklTree.sol\":1247:1359  function encode(string memory input) public pure returns(bytes memory) {... */\n    tag_6:\n      tag_24\n      0x04\n      dup1\n      calldatasize\n      sub\n      dup2\n      add\n      swap1\n      tag_25\n      swap2\n      swap1\n      tag_21\n      jump\t// in\n    tag_25:\n      tag_26\n      jump\t// in\n    tag_24:\n      mload(0x40)\n      tag_27\n      swap2\n      swap1\n      tag_28\n      jump\t// in\n    tag_27:\n      mload(0x40)\n      dup1\n      swap2\n      sub\n      swap1\n      return\n        /* \"contracts/MerklTree.sol\":1705:2174  function verify(string memory transaction, uint index, bytes32 root, bytes32[] memory proof) public pure returns(bool){... */\n    tag_10:\n        /* \"contracts/MerklTree.sol\":1818:1822  bool */\n      0x00\n        /* \"contracts/MerklTree.sol\":1829:1841  bytes32 hash */\n      dup1\n        /* \"contracts/MerklTree.sol\":1844:1865  makeHash(transaction) */\n      tag_30\n        /* \"contracts/MerklTree.sol\":1853:1864  transaction */\n      dup7\n        /* \"contracts/MerklTree.sol\":1844:1852  makeHash */\n      tag_22\n        /* \"contracts/MerklTree.sol\":1844:1865  makeHash(transaction) */\n      jump\t// in\n    tag_30:\n        /* \"contracts/MerklTree.sol\":1829:1865  bytes32 hash = makeHash(transaction) */\n      swap1\n      pop\n        /* \"contracts/MerklTree.sol\":1875:1881  uint i */\n      0x00\n        /* \"contracts/MerklTree.sol\":1871:2145  for(uint i = 0; i < proof.length; i++) {... */\n    tag_31:\n        /* \"contracts/MerklTree.sol\":1891:1896  proof */\n      dup4\n        /* \"contracts/MerklTree.sol\":1891:1903  proof.length */\n      mload\n        /* \"contracts/MerklTree.sol\":1887:1888  i */\n      dup2\n        /* \"contracts/MerklTree.sol\":1887:1903  i < proof.length */\n      lt\n        /* \"contracts/MerklTree.sol\":1871:2145  for(uint i = 0; i < proof.length; i++) {... */\n      iszero\n      tag_32\n      jumpi\n        /* \"contracts/MerklTree.sol\":1918:1933  bytes32 element */\n      0x00\n        /* \"contracts/MerklTree.sol\":1936:1941  proof */\n      dup5\n        /* \"contracts/MerklTree.sol\":1942:1943  i */\n      dup3\n        /* \"contracts/MerklTree.sol\":1936:1944  proof[i] */\n      dup2\n      mload\n      dup2\n      lt\n      tag_34\n      jumpi\n      tag_35\n      tag_36\n      jump\t// in\n    tag_35:\n    tag_34:\n      0x20\n      mul\n      0x20\n      add\n      add\n      mload\n        /* \"contracts/MerklTree.sol\":1918:1944  bytes32 element = proof[i] */\n      swap1\n      pop\n        /* \"contracts/MerklTree.sol\":1969:1970  0 */\n      0x00\n        /* \"contracts/MerklTree.sol\":1964:1965  2 */\n      0x02\n        /* \"contracts/MerklTree.sol\":1956:1961  index */\n      dup9\n        /* \"contracts/MerklTree.sol\":1956:1965  index % 2 */\n      tag_37\n      swap2\n      swap1\n      tag_38\n      jump\t// in\n    tag_37:\n        /* \"contracts/MerklTree.sol\":1956:1970  index % 2 == 0 */\n      sub\n        /* \"contracts/MerklTree.sol\":1952:2114  if (index % 2 == 0) {... */\n      tag_39\n      jumpi\n        /* \"contracts/MerklTree.sol\":2016:2020  hash */\n      dup3\n        /* \"contracts/MerklTree.sol\":2022:2029  element */\n      dup2\n        /* \"contracts/MerklTree.sol\":1999:2030  abi.encodePacked(hash, element) */\n      add(0x20, mload(0x40))\n      tag_40\n      swap3\n      swap2\n      swap1\n      tag_41\n      jump\t// in\n    tag_40:\n      mload(0x40)\n      0x20\n      dup2\n      dup4\n      sub\n      sub\n      dup2\n      mstore\n      swap1\n      0x40\n      mstore\n        /* \"contracts/MerklTree.sol\":1989:2031  keccak256(abi.encodePacked(hash, element)) */\n      dup1\n      mload\n      swap1\n      0x20\n      add\n      keccak256\n        /* \"contracts/MerklTree.sol\":1982:2031  hash = keccak256(abi.encodePacked(hash, element)) */\n      swap3\n      pop\n        /* \"contracts/MerklTree.sol\":1952:2114  if (index % 2 == 0) {... */\n      jump(tag_42)\n    tag_39:\n        /* \"contracts/MerklTree.sol\":2090:2097  element */\n      dup1\n        /* \"contracts/MerklTree.sol\":2099:2103  hash */\n      dup4\n        /* \"contracts/MerklTree.sol\":2073:2104  abi.encodePacked(element, hash) */\n      add(0x20, mload(0x40))\n      tag_43\n      swap3\n      swap2\n      swap1\n      tag_41\n      jump\t// in\n    tag_43:\n      mload(0x40)\n      0x20\n      dup2\n      dup4\n      sub\n      sub\n      dup2\n      mstore\n      swap1\n      0x40\n      mstore\n        /* \"contracts/MerklTree.sol\":2063:2105  keccak256(abi.encodePacked(element, hash)) */\n      dup1\n      mload\n      swap1\n      0x20\n      add\n      keccak256\n        /* \"contracts/MerklTree.sol\":2056:2105  hash = keccak256(abi.encodePacked(element, hash)) */\n      swap3\n      pop\n        /* \"contracts/MerklTree.sol\":1952:2114  if (index % 2 == 0) {... */\n    tag_42:\n        /* \"contracts/MerklTree.sol\":2137:2138  2 */\n      0x02\n        /* \"contracts/MerklTree.sol\":2129:2134  index */\n      dup8\n        /* \"contracts/MerklTree.sol\":2129:2138  index / 2 */\n      tag_44\n      swap2\n      swap1\n      tag_45\n      jump\t// in\n    tag_44:\n        /* \"contracts/MerklTree.sol\":2121:2138  index = index / 2 */\n      swap7\n      pop\n        /* \"contracts/MerklTree.sol\":1910:2145  {... */\n      pop\n        /* \"contracts/MerklTree.sol\":1905:1908  i++ */\n      dup1\n      dup1\n      0x01\n      add\n      swap2\n      pop\n      pop\n        /* \"contracts/MerklTree.sol\":1871:2145  for(uint i = 0; i < proof.length; i++) {... */\n      jump(tag_31)\n    tag_32:\n      pop\n        /* \"contracts/MerklTree.sol\":2165:2169  root */\n      dup4\n        /* \"contracts/MerklTree.sol\":2157:2161  hash */\n      dup2\n        /* \"contracts/MerklTree.sol\":2157:2169  hash == root */\n      eq\n        /* \"contracts/MerklTree.sol\":2150:2169  return hash == root */\n      swap2\n      pop\n      pop\n        /* \"contracts/MerklTree.sol\":1705:2174  function verify(string memory transaction, uint index, bytes32 root, bytes32[] memory proof) public pure returns(bool){... */\n      swap5\n      swap4\n      pop\n      pop\n      pop\n      pop\n      jump\t// out\n        /* \"contracts/MerklTree.sol\":92:115  bytes32[] public hashes */\n    tag_16:\n      0x00\n      dup2\n      dup2\n      sload\n      dup2\n      lt\n      tag_46\n      jumpi\n      0x00\n      dup1\n      revert\n    tag_46:\n      swap1\n      0x00\n      mstore\n      keccak256(0x00, 0x20)\n      add\n      0x00\n      swap2\n      pop\n      swap1\n      pop\n      sload\n      dup2\n      jump\t// out\n        /* \"contracts/MerklTree.sol\":1363:1485  function makeHash(string memory input) public pure returns(bytes32) {... */\n    tag_22:\n        /* \"contracts/MerklTree.sol\":1422:1429  bytes32 */\n      0x00\n        /* \"contracts/MerklTree.sol\":1461:1474  encode(input) */\n      tag_49\n        /* \"contracts/MerklTree.sol\":1468:1473  input */\n      dup3\n        /* \"contracts/MerklTree.sol\":1461:1467  encode */\n      tag_26\n        /* \"contracts/MerklTree.sol\":1461:1474  encode(input) */\n      jump\t// in\n    tag_49:\n        /* \"contracts/MerklTree.sol\":1444:1480  keccak256(... */\n      dup1\n      mload\n      swap1\n      0x20\n      add\n      keccak256\n        /* \"contracts/MerklTree.sol\":1437:1480  return keccak256(... */\n      swap1\n      pop\n        /* \"contracts/MerklTree.sol\":1363:1485  function makeHash(string memory input) public pure returns(bytes32) {... */\n      swap2\n      swap1\n      pop\n      jump\t// out\n        /* \"contracts/MerklTree.sol\":1247:1359  function encode(string memory input) public pure returns(bytes memory) {... */\n    tag_26:\n        /* \"contracts/MerklTree.sol\":1304:1316  bytes memory */\n      0x60\n        /* \"contracts/MerklTree.sol\":1348:1353  input */\n      dup2\n        /* \"contracts/MerklTree.sol\":1331:1354  abi.encodePacked(input) */\n      add(0x20, mload(0x40))\n      tag_51\n      swap2\n      swap1\n      tag_52\n      jump\t// in\n    tag_51:\n      mload(0x40)\n      0x20\n      dup2\n      dup4\n      sub\n      sub\n      dup2\n      mstore\n      swap1\n      0x40\n      mstore\n        /* \"contracts/MerklTree.sol\":1324:1354  return abi.encodePacked(input) */\n      swap1\n      pop\n        /* \"contracts/MerklTree.sol\":1247:1359  function encode(string memory input) public pure returns(bytes memory) {... */\n      swap2\n      swap1\n      pop\n      jump\t// out\n        /* \"#utility.yul\":7:82   */\n    tag_53:\n        /* \"#utility.yul\":40:46   */\n      0x00\n        /* \"#utility.yul\":73:75   */\n      0x40\n        /* \"#utility.yul\":67:76   */\n      mload\n        /* \"#utility.yul\":57:76   */\n      swap1\n      pop\n        /* \"#utility.yul\":7:82   */\n      swap1\n      jump\t// out\n        /* \"#utility.yul\":88:205   */\n    tag_54:\n        /* \"#utility.yul\":197:198   */\n      0x00\n        /* \"#utility.yul\":194:195   */\n      dup1\n        /* \"#utility.yul\":187:199   */\n      revert\n        /* \"#utility.yul\":211:328   */\n    tag_55:\n        /* \"#utility.yul\":320:321   */\n      0x00\n        /* \"#utility.yul\":317:318   */\n      dup1\n        /* \"#utility.yul\":310:322   */\n      revert\n        /* \"#utility.yul\":334:451   */\n    tag_56:\n        /* \"#utility.yul\":443:444   */\n      0x00\n        /* \"#utility.yul\":440:441   */\n      dup1\n        /* \"#utility.yul\":433:445   */\n      revert\n        /* \"#utility.yul\":457:574   */\n    tag_57:\n        /* \"#utility.yul\":566:567   */\n      0x00\n        /* \"#utility.yul\":563:564   */\n      dup1\n        /* \"#utility.yul\":556:568   */\n      revert\n        /* \"#utility.yul\":580:682   */\n    tag_58:\n        /* \"#utility.yul\":621:627   */\n      0x00\n        /* \"#utility.yul\":672:674   */\n      0x1f\n        /* \"#utility.yul\":668:675   */\n      not\n        /* \"#utility.yul\":663:665   */\n      0x1f\n        /* \"#utility.yul\":656:661   */\n      dup4\n        /* \"#utility.yul\":652:666   */\n      add\n        /* \"#utility.yul\":648:676   */\n      and\n        /* \"#utility.yul\":638:676   */\n      swap1\n      pop\n        /* \"#utility.yul\":580:682   */\n      swap2\n      swap1\n      pop\n      jump\t// out\n        /* \"#utility.yul\":688:868   */\n    tag_59:\n        /* \"#utility.yul\":736:813   */\n      0x4e487b7100000000000000000000000000000000000000000000000000000000\n        /* \"#utility.yul\":733:734   */\n      0x00\n        /* \"#utility.yul\":726:814   */\n      mstore\n        /* \"#utility.yul\":833:837   */\n      0x41\n        /* \"#utility.yul\":830:831   */\n      0x04\n        /* \"#utility.yul\":823:838   */\n      mstore\n        /* \"#utility.yul\":857:861   */\n      0x24\n        /* \"#utility.yul\":854:855   */\n      0x00\n        /* \"#utility.yul\":847:862   */\n      revert\n        /* \"#utility.yul\":874:1155   */\n    tag_60:\n        /* \"#utility.yul\":957:984   */\n      tag_99\n        /* \"#utility.yul\":979:983   */\n      dup3\n        /* \"#utility.yul\":957:984   */\n      tag_58\n      jump\t// in\n    tag_99:\n        /* \"#utility.yul\":949:955   */\n      dup2\n        /* \"#utility.yul\":945:985   */\n      add\n        /* \"#utility.yul\":1087:1093   */\n      dup2\n        /* \"#utility.yul\":1075:1085   */\n      dup2\n        /* \"#utility.yul\":1072:1094   */\n      lt\n        /* \"#utility.yul\":1051:1069   */\n      0xffffffffffffffff\n        /* \"#utility.yul\":1039:1049   */\n      dup3\n        /* \"#utility.yul\":1036:1070   */\n      gt\n        /* \"#utility.yul\":1033:1095   */\n      or\n        /* \"#utility.yul\":1030:1118   */\n      iszero\n      tag_100\n      jumpi\n        /* \"#utility.yul\":1098:1116   */\n      tag_101\n      tag_59\n      jump\t// in\n    tag_101:\n        /* \"#utility.yul\":1030:1118   */\n    tag_100:\n        /* \"#utility.yul\":1138:1148   */\n      dup1\n        /* \"#utility.yul\":1134:1136   */\n      0x40\n        /* \"#utility.yul\":1127:1149   */\n      mstore\n        /* \"#utility.yul\":917:1155   */\n      pop\n        /* \"#utility.yul\":874:1155   */\n      pop\n      pop\n      jump\t// out\n        /* \"#utility.yul\":1161:1290   */\n    tag_61:\n        /* \"#utility.yul\":1195:1201   */\n      0x00\n        /* \"#utility.yul\":1222:1242   */\n      tag_103\n      tag_53\n      jump\t// in\n    tag_103:\n        /* \"#utility.yul\":1212:1242   */\n      swap1\n      pop\n        /* \"#utility.yul\":1251:1284   */\n      tag_104\n        /* \"#utility.yul\":1279:1283   */\n      dup3\n        /* \"#utility.yul\":1271:1277   */\n      dup3\n        /* \"#utility.yul\":1251:1284   */\n      tag_60\n      jump\t// in\n    tag_104:\n        /* \"#utility.yul\":1161:1290   */\n      swap2\n      swap1\n      pop\n      jump\t// out\n        /* \"#utility.yul\":1296:1604   */\n    tag_62:\n        /* \"#utility.yul\":1358:1362   */\n      0x00\n        /* \"#utility.yul\":1448:1466   */\n      0xffffffffffffffff\n        /* \"#utility.yul\":1440:1446   */\n      dup3\n        /* \"#utility.yul\":1437:1467   */\n      gt\n        /* \"#utility.yul\":1434:1490   */\n      iszero\n      tag_106\n      jumpi\n        /* \"#utility.yul\":1470:1488   */\n      tag_107\n      tag_59\n      jump\t// in\n    tag_107:\n        /* \"#utility.yul\":1434:1490   */\n    tag_106:\n        /* \"#utility.yul\":1508:1537   */\n      tag_108\n        /* \"#utility.yul\":1530:1536   */\n      dup3\n        /* \"#utility.yul\":1508:1537   */\n      tag_58\n      jump\t// in\n    tag_108:\n        /* \"#utility.yul\":1500:1537   */\n      swap1\n      pop\n        /* \"#utility.yul\":1592:1596   */\n      0x20\n        /* \"#utility.yul\":1586:1590   */\n      dup2\n        /* \"#utility.yul\":1582:1597   */\n      add\n        /* \"#utility.yul\":1574:1597   */\n      swap1\n      pop\n        /* \"#utility.yul\":1296:1604   */\n      swap2\n      swap1\n      pop\n      jump\t// out\n        /* \"#utility.yul\":1610:1756   */\n    tag_63:\n        /* \"#utility.yul\":1707:1713   */\n      dup3\n        /* \"#utility.yul\":1702:1705   */\n      dup2\n        /* \"#utility.yul\":1697:1700   */\n      dup4\n        /* \"#utility.yul\":1684:1714   */\n      calldatacopy\n        /* \"#utility.yul\":1748:1749   */\n      0x00\n        /* \"#utility.yul\":1739:1745   */\n      dup4\n        /* \"#utility.yul\":1734:1737   */\n      dup4\n        /* \"#utility.yul\":1730:1746   */\n      add\n        /* \"#utility.yul\":1723:1750   */\n      mstore\n        /* \"#utility.yul\":1610:1756   */\n      pop\n      pop\n      pop\n      jump\t// out\n        /* \"#utility.yul\":1762:2187   */\n    tag_64:\n        /* \"#utility.yul\":1840:1845   */\n      0x00\n        /* \"#utility.yul\":1865:1931   */\n      tag_111\n        /* \"#utility.yul\":1881:1930   */\n      tag_112\n        /* \"#utility.yul\":1923:1929   */\n      dup5\n        /* \"#utility.yul\":1881:1930   */\n      tag_62\n      jump\t// in\n    tag_112:\n        /* \"#utility.yul\":1865:1931   */\n      tag_61\n      jump\t// in\n    tag_111:\n        /* \"#utility.yul\":1856:1931   */\n      swap1\n      pop\n        /* \"#utility.yul\":1954:1960   */\n      dup3\n        /* \"#utility.yul\":1947:1952   */\n      dup2\n        /* \"#utility.yul\":1940:1961   */\n      mstore\n        /* \"#utility.yul\":1992:1996   */\n      0x20\n        /* \"#utility.yul\":1985:1990   */\n      dup2\n        /* \"#utility.yul\":1981:1997   */\n      add\n        /* \"#utility.yul\":2030:2033   */\n      dup5\n        /* \"#utility.yul\":2021:2027   */\n      dup5\n        /* \"#utility.yul\":2016:2019   */\n      dup5\n        /* \"#utility.yul\":2012:2028   */\n      add\n        /* \"#utility.yul\":2009:2034   */\n      gt\n        /* \"#utility.yul\":2006:2118   */\n      iszero\n      tag_113\n      jumpi\n        /* \"#utility.yul\":2037:2116   */\n      tag_114\n      tag_57\n      jump\t// in\n    tag_114:\n        /* \"#utility.yul\":2006:2118   */\n    tag_113:\n        /* \"#utility.yul\":2127:2181   */\n      tag_115\n        /* \"#utility.yul\":2174:2180   */\n      dup5\n        /* \"#utility.yul\":2169:2172   */\n      dup3\n        /* \"#utility.yul\":2164:2167   */\n      dup6\n        /* \"#utility.yul\":2127:2181   */\n      tag_63\n      jump\t// in\n    tag_115:\n        /* \"#utility.yul\":1846:2187   */\n      pop\n        /* \"#utility.yul\":1762:2187   */\n      swap4\n      swap3\n      pop\n      pop\n      pop\n      jump\t// out\n        /* \"#utility.yul\":2207:2547   */\n    tag_65:\n        /* \"#utility.yul\":2263:2268   */\n      0x00\n        /* \"#utility.yul\":2312:2315   */\n      dup3\n        /* \"#utility.yul\":2305:2309   */\n      0x1f\n        /* \"#utility.yul\":2297:2303   */\n      dup4\n        /* \"#utility.yul\":2293:2310   */\n      add\n        /* \"#utility.yul\":2289:2316   */\n      slt\n        /* \"#utility.yul\":2279:2401   */\n      tag_117\n      jumpi\n        /* \"#utility.yul\":2320:2399   */\n      tag_118\n      tag_56\n      jump\t// in\n    tag_118:\n        /* \"#utility.yul\":2279:2401   */\n    tag_117:\n        /* \"#utility.yul\":2437:2443   */\n      dup2\n        /* \"#utility.yul\":2424:2444   */\n      calldataload\n        /* \"#utility.yul\":2462:2541   */\n      tag_119\n        /* \"#utility.yul\":2537:2540   */\n      dup5\n        /* \"#utility.yul\":2529:2535   */\n      dup3\n        /* \"#utility.yul\":2522:2526   */\n      0x20\n        /* \"#utility.yul\":2514:2520   */\n      dup7\n        /* \"#utility.yul\":2510:2527   */\n      add\n        /* \"#utility.yul\":2462:2541   */\n      tag_64\n      jump\t// in\n    tag_119:\n        /* \"#utility.yul\":2453:2541   */\n      swap2\n      pop\n        /* \"#utility.yul\":2269:2547   */\n      pop\n        /* \"#utility.yul\":2207:2547   */\n      swap3\n      swap2\n      pop\n      pop\n      jump\t// out\n        /* \"#utility.yul\":2553:2630   */\n    tag_66:\n        /* \"#utility.yul\":2590:2597   */\n      0x00\n        /* \"#utility.yul\":2619:2624   */\n      dup2\n        /* \"#utility.yul\":2608:2624   */\n      swap1\n      pop\n        /* \"#utility.yul\":2553:2630   */\n      swap2\n      swap1\n      pop\n      jump\t// out\n        /* \"#utility.yul\":2636:2758   */\n    tag_67:\n        /* \"#utility.yul\":2709:2733   */\n      tag_122\n        /* \"#utility.yul\":2727:2732   */\n      dup2\n        /* \"#utility.yul\":2709:2733   */\n      tag_66\n      jump\t// in\n    tag_122:\n        /* \"#utility.yul\":2702:2707   */\n      dup2\n        /* \"#utility.yul\":2699:2734   */\n      eq\n        /* \"#utility.yul\":2689:2752   */\n      tag_123\n      jumpi\n        /* \"#utility.yul\":2748:2749   */\n      0x00\n        /* \"#utility.yul\":2745:2746   */\n      dup1\n        /* \"#utility.yul\":2738:2750   */\n      revert\n        /* \"#utility.yul\":2689:2752   */\n    tag_123:\n        /* \"#utility.yul\":2636:2758   */\n      pop\n      jump\t// out\n        /* \"#utility.yul\":2764:2903   */\n    tag_68:\n        /* \"#utility.yul\":2810:2815   */\n      0x00\n        /* \"#utility.yul\":2848:2854   */\n      dup2\n        /* \"#utility.yul\":2835:2855   */\n      calldataload\n        /* \"#utility.yul\":2826:2855   */\n      swap1\n      pop\n        /* \"#utility.yul\":2864:2897   */\n      tag_125\n        /* \"#utility.yul\":2891:2896   */\n      dup2\n        /* \"#utility.yul\":2864:2897   */\n      tag_67\n      jump\t// in\n    tag_125:\n        /* \"#utility.yul\":2764:2903   */\n      swap3\n      swap2\n      pop\n      pop\n      jump\t// out\n        /* \"#utility.yul\":2909:2986   */\n    tag_69:\n        /* \"#utility.yul\":2946:2953   */\n      0x00\n        /* \"#utility.yul\":2975:2980   */\n      dup2\n        /* \"#utility.yul\":2964:2980   */\n      swap1\n      pop\n        /* \"#utility.yul\":2909:2986   */\n      swap2\n      swap1\n      pop\n      jump\t// out\n        /* \"#utility.yul\":2992:3114   */\n    tag_70:\n        /* \"#utility.yul\":3065:3089   */\n      tag_128\n        /* \"#utility.yul\":3083:3088   */\n      dup2\n        /* \"#utility.yul\":3065:3089   */\n      tag_69\n      jump\t// in\n    tag_128:\n        /* \"#utility.yul\":3058:3063   */\n      dup2\n        /* \"#utility.yul\":3055:3090   */\n      eq\n        /* \"#utility.yul\":3045:3108   */\n      tag_129\n      jumpi\n        /* \"#utility.yul\":3104:3105   */\n      0x00\n        /* \"#utility.yul\":3101:3102   */\n      dup1\n        /* \"#utility.yul\":3094:3106   */\n      revert\n        /* \"#utility.yul\":3045:3108   */\n    tag_129:\n        /* \"#utility.yul\":2992:3114   */\n      pop\n      jump\t// out\n        /* \"#utility.yul\":3120:3259   */\n    tag_71:\n        /* \"#utility.yul\":3166:3171   */\n      0x00\n        /* \"#utility.yul\":3204:3210   */\n      dup2\n        /* \"#utility.yul\":3191:3211   */\n      calldataload\n        /* \"#utility.yul\":3182:3211   */\n      swap1\n      pop\n        /* \"#utility.yul\":3220:3253   */\n      tag_131\n        /* \"#utility.yul\":3247:3252   */\n      dup2\n        /* \"#utility.yul\":3220:3253   */\n      tag_70\n      jump\t// in\n    tag_131:\n        /* \"#utility.yul\":3120:3259   */\n      swap3\n      swap2\n      pop\n      pop\n      jump\t// out\n        /* \"#utility.yul\":3265:3576   */\n    tag_72:\n        /* \"#utility.yul\":3342:3346   */\n      0x00\n        /* \"#utility.yul\":3432:3450   */\n      0xffffffffffffffff\n        /* \"#utility.yul\":3424:3430   */\n      dup3\n        /* \"#utility.yul\":3421:3451   */\n      gt\n        /* \"#utility.yul\":3418:3474   */\n      iszero\n      tag_133\n      jumpi\n        /* \"#utility.yul\":3454:3472   */\n      tag_134\n      tag_59\n      jump\t// in\n    tag_134:\n        /* \"#utility.yul\":3418:3474   */\n    tag_133:\n        /* \"#utility.yul\":3504:3508   */\n      0x20\n        /* \"#utility.yul\":3496:3502   */\n      dup3\n        /* \"#utility.yul\":3492:3509   */\n      mul\n        /* \"#utility.yul\":3484:3509   */\n      swap1\n      pop\n        /* \"#utility.yul\":3564:3568   */\n      0x20\n        /* \"#utility.yul\":3558:3562   */\n      dup2\n        /* \"#utility.yul\":3554:3569   */\n      add\n        /* \"#utility.yul\":3546:3569   */\n      swap1\n      pop\n        /* \"#utility.yul\":3265:3576   */\n      swap2\n      swap1\n      pop\n      jump\t// out\n        /* \"#utility.yul\":3582:3699   */\n    tag_73:\n        /* \"#utility.yul\":3691:3692   */\n      0x00\n        /* \"#utility.yul\":3688:3689   */\n      dup1\n        /* \"#utility.yul\":3681:3693   */\n      revert\n        /* \"#utility.yul\":3722:4432   */\n    tag_74:\n        /* \"#utility.yul\":3818:3823   */\n      0x00\n        /* \"#utility.yul\":3843:3924   */\n      tag_137\n        /* \"#utility.yul\":3859:3923   */\n      tag_138\n        /* \"#utility.yul\":3916:3922   */\n      dup5\n        /* \"#utility.yul\":3859:3923   */\n      tag_72\n      jump\t// in\n    tag_138:\n        /* \"#utility.yul\":3843:3924   */\n      tag_61\n      jump\t// in\n    tag_137:\n        /* \"#utility.yul\":3834:3924   */\n      swap1\n      pop\n        /* \"#utility.yul\":3944:3949   */\n      dup1\n        /* \"#utility.yul\":3973:3979   */\n      dup4\n        /* \"#utility.yul\":3966:3971   */\n      dup3\n        /* \"#utility.yul\":3959:3980   */\n      mstore\n        /* \"#utility.yul\":4007:4011   */\n      0x20\n        /* \"#utility.yul\":4000:4005   */\n      dup3\n        /* \"#utility.yul\":3996:4012   */\n      add\n        /* \"#utility.yul\":3989:4012   */\n      swap1\n      pop\n        /* \"#utility.yul\":4060:4064   */\n      0x20\n        /* \"#utility.yul\":4052:4058   */\n      dup5\n        /* \"#utility.yul\":4048:4065   */\n      mul\n        /* \"#utility.yul\":4040:4046   */\n      dup4\n        /* \"#utility.yul\":4036:4066   */\n      add\n        /* \"#utility.yul\":4089:4092   */\n      dup6\n        /* \"#utility.yul\":4081:4087   */\n      dup2\n        /* \"#utility.yul\":4078:4093   */\n      gt\n        /* \"#utility.yul\":4075:4197   */\n      iszero\n      tag_139\n      jumpi\n        /* \"#utility.yul\":4108:4187   */\n      tag_140\n      tag_73\n      jump\t// in\n    tag_140:\n        /* \"#utility.yul\":4075:4197   */\n    tag_139:\n        /* \"#utility.yul\":4223:4229   */\n      dup4\n        /* \"#utility.yul\":4206:4426   */\n    tag_141:\n        /* \"#utility.yul\":4240:4246   */\n      dup2\n        /* \"#utility.yul\":4235:4238   */\n      dup2\n        /* \"#utility.yul\":4232:4247   */\n      lt\n        /* \"#utility.yul\":4206:4426   */\n      iszero\n      tag_143\n      jumpi\n        /* \"#utility.yul\":4315:4318   */\n      dup1\n        /* \"#utility.yul\":4344:4381   */\n      tag_144\n        /* \"#utility.yul\":4377:4380   */\n      dup9\n        /* \"#utility.yul\":4365:4375   */\n      dup3\n        /* \"#utility.yul\":4344:4381   */\n      tag_71\n      jump\t// in\n    tag_144:\n        /* \"#utility.yul\":4339:4342   */\n      dup5\n        /* \"#utility.yul\":4332:4382   */\n      mstore\n        /* \"#utility.yul\":4411:4415   */\n      0x20\n        /* \"#utility.yul\":4406:4409   */\n      dup5\n        /* \"#utility.yul\":4402:4416   */\n      add\n        /* \"#utility.yul\":4395:4416   */\n      swap4\n      pop\n        /* \"#utility.yul\":4282:4426   */\n      pop\n        /* \"#utility.yul\":4266:4270   */\n      0x20\n        /* \"#utility.yul\":4261:4264   */\n      dup2\n        /* \"#utility.yul\":4257:4271   */\n      add\n        /* \"#utility.yul\":4250:4271   */\n      swap1\n      pop\n        /* \"#utility.yul\":4206:4426   */\n      jump(tag_141)\n    tag_143:\n        /* \"#utility.yul\":4210:4231   */\n      pop\n        /* \"#utility.yul\":3824:4432   */\n      pop\n      pop\n        /* \"#utility.yul\":3722:4432   */\n      swap4\n      swap3\n      pop\n      pop\n      pop\n      jump\t// out\n        /* \"#utility.yul\":4455:4825   */\n    tag_75:\n        /* \"#utility.yul\":4526:4531   */\n      0x00\n        /* \"#utility.yul\":4575:4578   */\n      dup3\n        /* \"#utility.yul\":4568:4572   */\n      0x1f\n        /* \"#utility.yul\":4560:4566   */\n      dup4\n        /* \"#utility.yul\":4556:4573   */\n      add\n        /* \"#utility.yul\":4552:4579   */\n      slt\n        /* \"#utility.yul\":4542:4664   */\n      tag_146\n      jumpi\n        /* \"#utility.yul\":4583:4662   */\n      tag_147\n      tag_56\n      jump\t// in\n    tag_147:\n        /* \"#utility.yul\":4542:4664   */\n    tag_146:\n        /* \"#utility.yul\":4700:4706   */\n      dup2\n        /* \"#utility.yul\":4687:4707   */\n      calldataload\n        /* \"#utility.yul\":4725:4819   */\n      tag_148\n        /* \"#utility.yul\":4815:4818   */\n      dup5\n        /* \"#utility.yul\":4807:4813   */\n      dup3\n        /* \"#utility.yul\":4800:4804   */\n      0x20\n        /* \"#utility.yul\":4792:4798   */\n      dup7\n        /* \"#utility.yul\":4788:4805   */\n      add\n        /* \"#utility.yul\":4725:4819   */\n      tag_74\n      jump\t// in\n    tag_148:\n        /* \"#utility.yul\":4716:4819   */\n      swap2\n      pop\n        /* \"#utility.yul\":4532:4825   */\n      pop\n        /* \"#utility.yul\":4455:4825   */\n      swap3\n      swap2\n      pop\n      pop\n      jump\t// out\n        /* \"#utility.yul\":4831:5986   */\n    tag_9:\n        /* \"#utility.yul\":4952:4958   */\n      0x00\n        /* \"#utility.yul\":4960:4966   */\n      dup1\n        /* \"#utility.yul\":4968:4974   */\n      0x00\n        /* \"#utility.yul\":4976:4982   */\n      dup1\n        /* \"#utility.yul\":5025:5028   */\n      0x80\n        /* \"#utility.yul\":5013:5022   */\n      dup6\n        /* \"#utility.yul\":5004:5011   */\n      dup8\n        /* \"#utility.yul\":5000:5023   */\n      sub\n        /* \"#utility.yul\":4996:5029   */\n      slt\n        /* \"#utility.yul\":4993:5113   */\n      iszero\n      tag_150\n      jumpi\n        /* \"#utility.yul\":5032:5111   */\n      tag_151\n      tag_54\n      jump\t// in\n    tag_151:\n        /* \"#utility.yul\":4993:5113   */\n    tag_150:\n        /* \"#utility.yul\":5180:5181   */\n      0x00\n        /* \"#utility.yul\":5169:5178   */\n      dup6\n        /* \"#utility.yul\":5165:5182   */\n      add\n        /* \"#utility.yul\":5152:5183   */\n      calldataload\n        /* \"#utility.yul\":5210:5228   */\n      0xffffffffffffffff\n        /* \"#utility.yul\":5202:5208   */\n      dup2\n        /* \"#utility.yul\":5199:5229   */\n      gt\n        /* \"#utility.yul\":5196:5313   */\n      iszero\n      tag_152\n      jumpi\n        /* \"#utility.yul\":5232:5311   */\n      tag_153\n      tag_55\n      jump\t// in\n    tag_153:\n        /* \"#utility.yul\":5196:5313   */\n    tag_152:\n        /* \"#utility.yul\":5337:5400   */\n      tag_154\n        /* \"#utility.yul\":5392:5399   */\n      dup8\n        /* \"#utility.yul\":5383:5389   */\n      dup3\n        /* \"#utility.yul\":5372:5381   */\n      dup9\n        /* \"#utility.yul\":5368:5390   */\n      add\n        /* \"#utility.yul\":5337:5400   */\n      tag_65\n      jump\t// in\n    tag_154:\n        /* \"#utility.yul\":5327:5400   */\n      swap5\n      pop\n        /* \"#utility.yul\":5123:5410   */\n      pop\n        /* \"#utility.yul\":5449:5451   */\n      0x20\n        /* \"#utility.yul\":5475:5528   */\n      tag_155\n        /* \"#utility.yul\":5520:5527   */\n      dup8\n        /* \"#utility.yul\":5511:5517   */\n      dup3\n        /* \"#utility.yul\":5500:5509   */\n      dup9\n        /* \"#utility.yul\":5496:5518   */\n      add\n        /* \"#utility.yul\":5475:5528   */\n      tag_68\n      jump\t// in\n    tag_155:\n        /* \"#utility.yul\":5465:5528   */\n      swap4\n      pop\n        /* \"#utility.yul\":5420:5538   */\n      pop\n        /* \"#utility.yul\":5577:5579   */\n      0x40\n        /* \"#utility.yul\":5603:5656   */\n      tag_156\n        /* \"#utility.yul\":5648:5655   */\n      dup8\n        /* \"#utility.yul\":5639:5645   */\n      dup3\n        /* \"#utility.yul\":5628:5637   */\n      dup9\n        /* \"#utility.yul\":5624:5646   */\n      add\n        /* \"#utility.yul\":5603:5656   */\n      tag_71\n      jump\t// in\n    tag_156:\n        /* \"#utility.yul\":5593:5656   */\n      swap3\n      pop\n        /* \"#utility.yul\":5548:5666   */\n      pop\n        /* \"#utility.yul\":5733:5735   */\n      0x60\n        /* \"#utility.yul\":5722:5731   */\n      dup6\n        /* \"#utility.yul\":5718:5736   */\n      add\n        /* \"#utility.yul\":5705:5737   */\n      calldataload\n        /* \"#utility.yul\":5764:5782   */\n      0xffffffffffffffff\n        /* \"#utility.yul\":5756:5762   */\n      dup2\n        /* \"#utility.yul\":5753:5783   */\n      gt\n        /* \"#utility.yul\":5750:5867   */\n      iszero\n      tag_157\n      jumpi\n        /* \"#utility.yul\":5786:5865   */\n      tag_158\n      tag_55\n      jump\t// in\n    tag_158:\n        /* \"#utility.yul\":5750:5867   */\n    tag_157:\n        /* \"#utility.yul\":5891:5969   */\n      tag_159\n        /* \"#utility.yul\":5961:5968   */\n      dup8\n        /* \"#utility.yul\":5952:5958   */\n      dup3\n        /* \"#utility.yul\":5941:5950   */\n      dup9\n        /* \"#utility.yul\":5937:5959   */\n      add\n        /* \"#utility.yul\":5891:5969   */\n      tag_75\n      jump\t// in\n    tag_159:\n        /* \"#utility.yul\":5881:5969   */\n      swap2\n      pop\n        /* \"#utility.yul\":5676:5979   */\n      pop\n        /* \"#utility.yul\":4831:5986   */\n      swap3\n      swap6\n      swap2\n      swap5\n      pop\n      swap3\n      pop\n      jump\t// out\n        /* \"#utility.yul\":5992:6082   */\n    tag_76:\n        /* \"#utility.yul\":6026:6033   */\n      0x00\n        /* \"#utility.yul\":6069:6074   */\n      dup2\n        /* \"#utility.yul\":6062:6075   */\n      iszero\n        /* \"#utility.yul\":6055:6076   */\n      iszero\n        /* \"#utility.yul\":6044:6076   */\n      swap1\n      pop\n        /* \"#utility.yul\":5992:6082   */\n      swap2\n      swap1\n      pop\n      jump\t// out\n        /* \"#utility.yul\":6088:6197   */\n    tag_77:\n        /* \"#utility.yul\":6169:6190   */\n      tag_162\n        /* \"#utility.yul\":6184:6189   */\n      dup2\n        /* \"#utility.yul\":6169:6190   */\n      tag_76\n      jump\t// in\n    tag_162:\n        /* \"#utility.yul\":6164:6167   */\n      dup3\n        /* \"#utility.yul\":6157:6191   */\n      mstore\n        /* \"#utility.yul\":6088:6197   */\n      pop\n      pop\n      jump\t// out\n        /* \"#utility.yul\":6203:6413   */\n    tag_12:\n        /* \"#utility.yul\":6290:6294   */\n      0x00\n        /* \"#utility.yul\":6328:6330   */\n      0x20\n        /* \"#utility.yul\":6317:6326   */\n      dup3\n        /* \"#utility.yul\":6313:6331   */\n      add\n        /* \"#utility.yul\":6305:6331   */\n      swap1\n      pop\n        /* \"#utility.yul\":6341:6406   */\n      tag_164\n        /* \"#utility.yul\":6403:6404   */\n      0x00\n        /* \"#utility.yul\":6392:6401   */\n      dup4\n        /* \"#utility.yul\":6388:6405   */\n      add\n        /* \"#utility.yul\":6379:6385   */\n      dup5\n        /* \"#utility.yul\":6341:6406   */\n      tag_77\n      jump\t// in\n    tag_164:\n        /* \"#utility.yul\":6203:6413   */\n      swap3\n      swap2\n      pop\n      pop\n      jump\t// out\n        /* \"#utility.yul\":6419:6748   */\n    tag_15:\n        /* \"#utility.yul\":6478:6484   */\n      0x00\n        /* \"#utility.yul\":6527:6529   */\n      0x20\n        /* \"#utility.yul\":6515:6524   */\n      dup3\n        /* \"#utility.yul\":6506:6513   */\n      dup5\n        /* \"#utility.yul\":6502:6525   */\n      sub\n        /* \"#utility.yul\":6498:6530   */\n      slt\n        /* \"#utility.yul\":6495:6614   */\n      iszero\n      tag_166\n      jumpi\n        /* \"#utility.yul\":6533:6612   */\n      tag_167\n      tag_54\n      jump\t// in\n    tag_167:\n        /* \"#utility.yul\":6495:6614   */\n    tag_166:\n        /* \"#utility.yul\":6653:6654   */\n      0x00\n        /* \"#utility.yul\":6678:6731   */\n      tag_168\n        /* \"#utility.yul\":6723:6730   */\n      dup5\n        /* \"#utility.yul\":6714:6720   */\n      dup3\n        /* \"#utility.yul\":6703:6712   */\n      dup6\n        /* \"#utility.yul\":6699:6721   */\n      add\n        /* \"#utility.yul\":6678:6731   */\n      tag_68\n      jump\t// in\n    tag_168:\n        /* \"#utility.yul\":6668:6731   */\n      swap2\n      pop\n        /* \"#utility.yul\":6624:6741   */\n      pop\n        /* \"#utility.yul\":6419:6748   */\n      swap3\n      swap2\n      pop\n      pop\n      jump\t// out\n        /* \"#utility.yul\":6754:6872   */\n    tag_78:\n        /* \"#utility.yul\":6841:6865   */\n      tag_170\n        /* \"#utility.yul\":6859:6864   */\n      dup2\n        /* \"#utility.yul\":6841:6865   */\n      tag_69\n      jump\t// in\n    tag_170:\n        /* \"#utility.yul\":6836:6839   */\n      dup3\n        /* \"#utility.yul\":6829:6866   */\n      mstore\n        /* \"#utility.yul\":6754:6872   */\n      pop\n      pop\n      jump\t// out\n        /* \"#utility.yul\":6878:7100   */\n    tag_18:\n        /* \"#utility.yul\":6971:6975   */\n      0x00\n        /* \"#utility.yul\":7009:7011   */\n      0x20\n        /* \"#utility.yul\":6998:7007   */\n      dup3\n        /* \"#utility.yul\":6994:7012   */\n      add\n        /* \"#utility.yul\":6986:7012   */\n      swap1\n      pop\n        /* \"#utility.yul\":7022:7093   */\n      tag_172\n        /* \"#utility.yul\":7090:7091   */\n      0x00\n        /* \"#utility.yul\":7079:7088   */\n      dup4\n        /* \"#utility.yul\":7075:7092   */\n      add\n        /* \"#utility.yul\":7066:7072   */\n      dup5\n        /* \"#utility.yul\":7022:7093   */\n      tag_78\n      jump\t// in\n    tag_172:\n        /* \"#utility.yul\":6878:7100   */\n      swap3\n      swap2\n      pop\n      pop\n      jump\t// out\n        /* \"#utility.yul\":7106:7615   */\n    tag_21:\n        /* \"#utility.yul\":7175:7181   */\n      0x00\n        /* \"#utility.yul\":7224:7226   */\n      0x20\n        /* \"#utility.yul\":7212:7221   */\n      dup3\n        /* \"#utility.yul\":7203:7210   */\n      dup5\n        /* \"#utility.yul\":7199:7222   */\n      sub\n        /* \"#utility.yul\":7195:7227   */\n      slt\n        /* \"#utility.yul\":7192:7311   */\n      iszero\n      tag_174\n      jumpi\n        /* \"#utility.yul\":7230:7309   */\n      tag_175\n      tag_54\n      jump\t// in\n    tag_175:\n        /* \"#utility.yul\":7192:7311   */\n    tag_174:\n        /* \"#utility.yul\":7378:7379   */\n      0x00\n        /* \"#utility.yul\":7367:7376   */\n      dup3\n        /* \"#utility.yul\":7363:7380   */\n      add\n        /* \"#utility.yul\":7350:7381   */\n      calldataload\n        /* \"#utility.yul\":7408:7426   */\n      0xffffffffffffffff\n        /* \"#utility.yul\":7400:7406   */\n      dup2\n        /* \"#utility.yul\":7397:7427   */\n      gt\n        /* \"#utility.yul\":7394:7511   */\n      iszero\n      tag_176\n      jumpi\n        /* \"#utility.yul\":7430:7509   */\n      tag_177\n      tag_55\n      jump\t// in\n    tag_177:\n        /* \"#utility.yul\":7394:7511   */\n    tag_176:\n        /* \"#utility.yul\":7535:7598   */\n      tag_178\n        /* \"#utility.yul\":7590:7597   */\n      dup5\n        /* \"#utility.yul\":7581:7587   */\n      dup3\n        /* \"#utility.yul\":7570:7579   */\n      dup6\n        /* \"#utility.yul\":7566:7588   */\n      add\n        /* \"#utility.yul\":7535:7598   */\n      tag_65\n      jump\t// in\n    tag_178:\n        /* \"#utility.yul\":7525:7598   */\n      swap2\n      pop\n        /* \"#utility.yul\":7321:7608   */\n      pop\n        /* \"#utility.yul\":7106:7615   */\n      swap3\n      swap2\n      pop\n      pop\n      jump\t// out\n        /* \"#utility.yul\":7621:7719   */\n    tag_79:\n        /* \"#utility.yul\":7672:7678   */\n      0x00\n        /* \"#utility.yul\":7706:7711   */\n      dup2\n        /* \"#utility.yul\":7700:7712   */\n      mload\n        /* \"#utility.yul\":7690:7712   */\n      swap1\n      pop\n        /* \"#utility.yul\":7621:7719   */\n      swap2\n      swap1\n      pop\n      jump\t// out\n        /* \"#utility.yul\":7725:7893   */\n    tag_80:\n        /* \"#utility.yul\":7808:7819   */\n      0x00\n        /* \"#utility.yul\":7842:7848   */\n      dup3\n        /* \"#utility.yul\":7837:7840   */\n      dup3\n        /* \"#utility.yul\":7830:7849   */\n      mstore\n        /* \"#utility.yul\":7882:7886   */\n      0x20\n        /* \"#utility.yul\":7877:7880   */\n      dup3\n        /* \"#utility.yul\":7873:7887   */\n      add\n        /* \"#utility.yul\":7858:7887   */\n      swap1\n      pop\n        /* \"#utility.yul\":7725:7893   */\n      swap3\n      swap2\n      pop\n      pop\n      jump\t// out\n        /* \"#utility.yul\":7899:8145   */\n    tag_81:\n        /* \"#utility.yul\":7980:7981   */\n      0x00\n        /* \"#utility.yul\":7990:8103   */\n    tag_182:\n        /* \"#utility.yul\":8004:8010   */\n      dup4\n        /* \"#utility.yul\":8001:8002   */\n      dup2\n        /* \"#utility.yul\":7998:8011   */\n      lt\n        /* \"#utility.yul\":7990:8103   */\n      iszero\n      tag_184\n      jumpi\n        /* \"#utility.yul\":8089:8090   */\n      dup1\n        /* \"#utility.yul\":8084:8087   */\n      dup3\n        /* \"#utility.yul\":8080:8091   */\n      add\n        /* \"#utility.yul\":8074:8092   */\n      mload\n        /* \"#utility.yul\":8070:8071   */\n      dup2\n        /* \"#utility.yul\":8065:8068   */\n      dup5\n        /* \"#utility.yul\":8061:8072   */\n      add\n        /* \"#utility.yul\":8054:8093   */\n      mstore\n        /* \"#utility.yul\":8026:8028   */\n      0x20\n        /* \"#utility.yul\":8023:8024   */\n      dup2\n        /* \"#utility.yul\":8019:8029   */\n      add\n        /* \"#utility.yul\":8014:8029   */\n      swap1\n      pop\n        /* \"#utility.yul\":7990:8103   */\n      jump(tag_182)\n    tag_184:\n        /* \"#utility.yul\":8137:8138   */\n      0x00\n        /* \"#utility.yul\":8128:8134   */\n      dup5\n        /* \"#utility.yul\":8123:8126   */\n      dup5\n        /* \"#utility.yul\":8119:8135   */\n      add\n        /* \"#utility.yul\":8112:8139   */\n      mstore\n        /* \"#utility.yul\":7961:8145   */\n      pop\n        /* \"#utility.yul\":7899:8145   */\n      pop\n      pop\n      pop\n      jump\t// out\n        /* \"#utility.yul\":8151:8524   */\n    tag_82:\n        /* \"#utility.yul\":8237:8240   */\n      0x00\n        /* \"#utility.yul\":8265:8303   */\n      tag_186\n        /* \"#utility.yul\":8297:8302   */\n      dup3\n        /* \"#utility.yul\":8265:8303   */\n      tag_79\n      jump\t// in\n    tag_186:\n        /* \"#utility.yul\":8319:8389   */\n      tag_187\n        /* \"#utility.yul\":8382:8388   */\n      dup2\n        /* \"#utility.yul\":8377:8380   */\n      dup6\n        /* \"#utility.yul\":8319:8389   */\n      tag_80\n      jump\t// in\n    tag_187:\n        /* \"#utility.yul\":8312:8389   */\n      swap4\n      pop\n        /* \"#utility.yul\":8398:8463   */\n      tag_188\n        /* \"#utility.yul\":8456:8462   */\n      dup2\n        /* \"#utility.yul\":8451:8454   */\n      dup6\n        /* \"#utility.yul\":8444:8448   */\n      0x20\n        /* \"#utility.yul\":8437:8442   */\n      dup7\n        /* \"#utility.yul\":8433:8449   */\n      add\n        /* \"#utility.yul\":8398:8463   */\n      tag_81\n      jump\t// in\n    tag_188:\n        /* \"#utility.yul\":8488:8517   */\n      tag_189\n        /* \"#utility.yul\":8510:8516   */\n      dup2\n        /* \"#utility.yul\":8488:8517   */\n      tag_58\n      jump\t// in\n    tag_189:\n        /* \"#utility.yul\":8483:8486   */\n      dup5\n        /* \"#utility.yul\":8479:8518   */\n      add\n        /* \"#utility.yul\":8472:8518   */\n      swap2\n      pop\n        /* \"#utility.yul\":8241:8524   */\n      pop\n        /* \"#utility.yul\":8151:8524   */\n      swap3\n      swap2\n      pop\n      pop\n      jump\t// out\n        /* \"#utility.yul\":8530:8839   */\n    tag_28:\n        /* \"#utility.yul\":8641:8645   */\n      0x00\n        /* \"#utility.yul\":8679:8681   */\n      0x20\n        /* \"#utility.yul\":8668:8677   */\n      dup3\n        /* \"#utility.yul\":8664:8682   */\n      add\n        /* \"#utility.yul\":8656:8682   */\n      swap1\n      pop\n        /* \"#utility.yul\":8728:8737   */\n      dup2\n        /* \"#utility.yul\":8722:8726   */\n      dup2\n        /* \"#utility.yul\":8718:8738   */\n      sub\n        /* \"#utility.yul\":8714:8715   */\n      0x00\n        /* \"#utility.yul\":8703:8712   */\n      dup4\n        /* \"#utility.yul\":8699:8716   */\n      add\n        /* \"#utility.yul\":8692:8739   */\n      mstore\n        /* \"#utility.yul\":8756:8832   */\n      tag_191\n        /* \"#utility.yul\":8827:8831   */\n      dup2\n        /* \"#utility.yul\":8818:8824   */\n      dup5\n        /* \"#utility.yul\":8756:8832   */\n      tag_82\n      jump\t// in\n    tag_191:\n        /* \"#utility.yul\":8748:8832   */\n      swap1\n      pop\n        /* \"#utility.yul\":8530:8839   */\n      swap3\n      swap2\n      pop\n      pop\n      jump\t// out\n        /* \"#utility.yul\":8845:9025   */\n    tag_36:\n        /* \"#utility.yul\":8893:8970   */\n      0x4e487b7100000000000000000000000000000000000000000000000000000000\n        /* \"#utility.yul\":8890:8891   */\n      0x00\n        /* \"#utility.yul\":8883:8971   */\n      mstore\n        /* \"#utility.yul\":8990:8994   */\n      0x32\n        /* \"#utility.yul\":8987:8988   */\n      0x04\n        /* \"#utility.yul\":8980:8995   */\n      mstore\n        /* \"#utility.yul\":9014:9018   */\n      0x24\n        /* \"#utility.yul\":9011:9012   */\n      0x00\n        /* \"#utility.yul\":9004:9019   */\n      revert\n        /* \"#utility.yul\":9031:9211   */\n    tag_83:\n        /* \"#utility.yul\":9079:9156   */\n      0x4e487b7100000000000000000000000000000000000000000000000000000000\n        /* \"#utility.yul\":9076:9077   */\n      0x00\n        /* \"#utility.yul\":9069:9157   */\n      mstore\n        /* \"#utility.yul\":9176:9180   */\n      0x12\n        /* \"#utility.yul\":9173:9174   */\n      0x04\n        /* \"#utility.yul\":9166:9181   */\n      mstore\n        /* \"#utility.yul\":9200:9204   */\n      0x24\n        /* \"#utility.yul\":9197:9198   */\n      0x00\n        /* \"#utility.yul\":9190:9205   */\n      revert\n        /* \"#utility.yul\":9217:9393   */\n    tag_38:\n        /* \"#utility.yul\":9249:9250   */\n      0x00\n        /* \"#utility.yul\":9266:9286   */\n      tag_195\n        /* \"#utility.yul\":9284:9285   */\n      dup3\n        /* \"#utility.yul\":9266:9286   */\n      tag_66\n      jump\t// in\n    tag_195:\n        /* \"#utility.yul\":9261:9286   */\n      swap2\n      pop\n        /* \"#utility.yul\":9300:9320   */\n      tag_196\n        /* \"#utility.yul\":9318:9319   */\n      dup4\n        /* \"#utility.yul\":9300:9320   */\n      tag_66\n      jump\t// in\n    tag_196:\n        /* \"#utility.yul\":9295:9320   */\n      swap3\n      pop\n        /* \"#utility.yul\":9339:9340   */\n      dup3\n        /* \"#utility.yul\":9329:9364   */\n      tag_197\n      jumpi\n        /* \"#utility.yul\":9344:9362   */\n      tag_198\n      tag_83\n      jump\t// in\n    tag_198:\n        /* \"#utility.yul\":9329:9364   */\n    tag_197:\n        /* \"#utility.yul\":9385:9386   */\n      dup3\n        /* \"#utility.yul\":9382:9383   */\n      dup3\n        /* \"#utility.yul\":9378:9387   */\n      mod\n        /* \"#utility.yul\":9373:9387   */\n      swap1\n      pop\n        /* \"#utility.yul\":9217:9393   */\n      swap3\n      swap2\n      pop\n      pop\n      jump\t// out\n        /* \"#utility.yul\":9399:9478   */\n    tag_84:\n        /* \"#utility.yul\":9438:9445   */\n      0x00\n        /* \"#utility.yul\":9467:9472   */\n      dup2\n        /* \"#utility.yul\":9456:9472   */\n      swap1\n      pop\n        /* \"#utility.yul\":9399:9478   */\n      swap2\n      swap1\n      pop\n      jump\t// out\n        /* \"#utility.yul\":9484:9641   */\n    tag_85:\n        /* \"#utility.yul\":9589:9634   */\n      tag_201\n        /* \"#utility.yul\":9609:9633   */\n      tag_202\n        /* \"#utility.yul\":9627:9632   */\n      dup3\n        /* \"#utility.yul\":9609:9633   */\n      tag_69\n      jump\t// in\n    tag_202:\n        /* \"#utility.yul\":9589:9634   */\n      tag_84\n      jump\t// in\n    tag_201:\n        /* \"#utility.yul\":9584:9587   */\n      dup3\n        /* \"#utility.yul\":9577:9635   */\n      mstore\n        /* \"#utility.yul\":9484:9641   */\n      pop\n      pop\n      jump\t// out\n        /* \"#utility.yul\":9647:10044   */\n    tag_41:\n        /* \"#utility.yul\":9787:9790   */\n      0x00\n        /* \"#utility.yul\":9802:9877   */\n      tag_204\n        /* \"#utility.yul\":9873:9876   */\n      dup3\n        /* \"#utility.yul\":9864:9870   */\n      dup6\n        /* \"#utility.yul\":9802:9877   */\n      tag_85\n      jump\t// in\n    tag_204:\n        /* \"#utility.yul\":9902:9904   */\n      0x20\n        /* \"#utility.yul\":9897:9900   */\n      dup3\n        /* \"#utility.yul\":9893:9905   */\n      add\n        /* \"#utility.yul\":9886:9905   */\n      swap2\n      pop\n        /* \"#utility.yul\":9915:9990   */\n      tag_205\n        /* \"#utility.yul\":9986:9989   */\n      dup3\n        /* \"#utility.yul\":9977:9983   */\n      dup5\n        /* \"#utility.yul\":9915:9990   */\n      tag_85\n      jump\t// in\n    tag_205:\n        /* \"#utility.yul\":10015:10017   */\n      0x20\n        /* \"#utility.yul\":10010:10013   */\n      dup3\n        /* \"#utility.yul\":10006:10018   */\n      add\n        /* \"#utility.yul\":9999:10018   */\n      swap2\n      pop\n        /* \"#utility.yul\":10035:10038   */\n      dup2\n        /* \"#utility.yul\":10028:10038   */\n      swap1\n      pop\n        /* \"#utility.yul\":9647:10044   */\n      swap4\n      swap3\n      pop\n      pop\n      pop\n      jump\t// out\n        /* \"#utility.yul\":10236:10421   */\n    tag_45:\n        /* \"#utility.yul\":10276:10277   */\n      0x00\n        /* \"#utility.yul\":10293:10313   */\n      tag_208\n        /* \"#utility.yul\":10311:10312   */\n      dup3\n        /* \"#utility.yul\":10293:10313   */\n      tag_66\n      jump\t// in\n    tag_208:\n        /* \"#utility.yul\":10288:10313   */\n      swap2\n      pop\n        /* \"#utility.yul\":10327:10347   */\n      tag_209\n        /* \"#utility.yul\":10345:10346   */\n      dup4\n        /* \"#utility.yul\":10327:10347   */\n      tag_66\n      jump\t// in\n    tag_209:\n        /* \"#utility.yul\":10322:10347   */\n      swap3\n      pop\n        /* \"#utility.yul\":10366:10367   */\n      dup3\n        /* \"#utility.yul\":10356:10391   */\n      tag_210\n      jumpi\n        /* \"#utility.yul\":10371:10389   */\n      tag_211\n      tag_83\n      jump\t// in\n    tag_211:\n        /* \"#utility.yul\":10356:10391   */\n    tag_210:\n        /* \"#utility.yul\":10413:10414   */\n      dup3\n        /* \"#utility.yul\":10410:10411   */\n      dup3\n        /* \"#utility.yul\":10406:10415   */\n      div\n        /* \"#utility.yul\":10401:10415   */\n      swap1\n      pop\n        /* \"#utility.yul\":10236:10421   */\n      swap3\n      swap2\n      pop\n      pop\n      jump\t// out\n        /* \"#utility.yul\":10427:10526   */\n    tag_87:\n        /* \"#utility.yul\":10479:10485   */\n      0x00\n        /* \"#utility.yul\":10513:10518   */\n      dup2\n        /* \"#utility.yul\":10507:10519   */\n      mload\n        /* \"#utility.yul\":10497:10519   */\n      swap1\n      pop\n        /* \"#utility.yul\":10427:10526   */\n      swap2\n      swap1\n      pop\n      jump\t// out\n        /* \"#utility.yul\":10532:10680   */\n    tag_88:\n        /* \"#utility.yul\":10634:10645   */\n      0x00\n        /* \"#utility.yul\":10671:10674   */\n      dup2\n        /* \"#utility.yul\":10656:10674   */\n      swap1\n      pop\n        /* \"#utility.yul\":10532:10680   */\n      swap3\n      swap2\n      pop\n      pop\n      jump\t// out\n        /* \"#utility.yul\":10686:11076   */\n    tag_89:\n        /* \"#utility.yul\":10792:10795   */\n      0x00\n        /* \"#utility.yul\":10820:10859   */\n      tag_215\n        /* \"#utility.yul\":10853:10858   */\n      dup3\n        /* \"#utility.yul\":10820:10859   */\n      tag_87\n      jump\t// in\n    tag_215:\n        /* \"#utility.yul\":10875:10964   */\n      tag_216\n        /* \"#utility.yul\":10957:10963   */\n      dup2\n        /* \"#utility.yul\":10952:10955   */\n      dup6\n        /* \"#utility.yul\":10875:10964   */\n      tag_88\n      jump\t// in\n    tag_216:\n        /* \"#utility.yul\":10868:10964   */\n      swap4\n      pop\n        /* \"#utility.yul\":10973:11038   */\n      tag_217\n        /* \"#utility.yul\":11031:11037   */\n      dup2\n        /* \"#utility.yul\":11026:11029   */\n      dup6\n        /* \"#utility.yul\":11019:11023   */\n      0x20\n        /* \"#utility.yul\":11012:11017   */\n      dup7\n        /* \"#utility.yul\":11008:11024   */\n      add\n        /* \"#utility.yul\":10973:11038   */\n      tag_81\n      jump\t// in\n    tag_217:\n        /* \"#utility.yul\":11063:11069   */\n      dup1\n        /* \"#utility.yul\":11058:11061   */\n      dup5\n        /* \"#utility.yul\":11054:11070   */\n      add\n        /* \"#utility.yul\":11047:11070   */\n      swap2\n      pop\n        /* \"#utility.yul\":10796:11076   */\n      pop\n        /* \"#utility.yul\":10686:11076   */\n      swap3\n      swap2\n      pop\n      pop\n      jump\t// out\n        /* \"#utility.yul\":11082:11357   */\n    tag_52:\n        /* \"#utility.yul\":11214:11217   */\n      0x00\n        /* \"#utility.yul\":11236:11331   */\n      tag_219\n        /* \"#utility.yul\":11327:11330   */\n      dup3\n        /* \"#utility.yul\":11318:11324   */\n      dup5\n        /* \"#utility.yul\":11236:11331   */\n      tag_89\n      jump\t// in\n    tag_219:\n        /* \"#utility.yul\":11229:11331   */\n      swap2\n      pop\n        /* \"#utility.yul\":11348:11351   */\n      dup2\n        /* \"#utility.yul\":11341:11351   */\n      swap1\n      pop\n        /* \"#utility.yul\":11082:11357   */\n      swap3\n      swap2\n      pop\n      pop\n      jump\t// out\n\n    auxdata: 0xa2646970667358221220f4db2440041bf27a7a0c83ae10dc84a8f829c3d828d6e174d68d8ad310cc8c8864736f6c63430008160033\n}\n",
				"bytecode": {
					"linkReferences": {},
					"object": "608060405260405180608001604052806040518060400160405280601581526020017f5458313a20536865726c6f636b202d3e204a6f6e68000000000000000000000081525081526020016040518060400160405280601581526020017f5458323a204a6f6e68202d3e20536865726c6f636b000000000000000000000081525081526020016040518060400160405280601581526020017f5458333a20536865726c6f636b202d3e204d617279000000000000000000000081525081526020016040518060400160405280601581526020017f5458343a204d617279202d3e20536865726c6f636b000000000000000000000081525081525060019060046200010b92919062000409565b5034801562000118575f80fd5b50620001296200012f60201b60201c565b620009e9565b5f5b600481101562000224575f620001f360018360048110620001575762000156620004e3565b5b01805462000165906200053d565b80601f016020809104026020016040519081016040528092919081815260200182805462000193906200053d565b8015620001e25780601f10620001b857610100808354040283529160200191620001e2565b820191905f5260205f20905b815481529060010190602001808311620001c457829003601f168201915b50505050506200023a60201b60201c565b908060018154018082558091505060019003905f5260205f20015f9091909190915055808060010191505062000131565b50620002385f60046200025a60201b60201c565b565b5f6200024c82620003de60201b60201c565b805190602001209050919050565b6001810315620003da575f805b82811015620003b85782600182620002809190620005a7565b101562000340575f808286620002979190620005a7565b81548110620002ab57620002aa620004e3565b5b905f5260205f2001545f60018488620002c59190620005a7565b620002d19190620005a7565b81548110620002e557620002e4620004e3565b5b905f5260205f200154604051602001620003019291906200060e565b60405160208183030381529060405280519060200120908060018154018082558091505060019003905f5260205f20015f909190919091505562000391565b5f808286620003509190620005a7565b81548110620003645762000363620004e3565b5b905f5260205f200154908060018154018082558091505060019003905f5260205f20015f90919091909150555b81806200039e906200063d565b925050600281620003b09190620005a7565b905062000267565b50620003d88284620003cb9190620005a7565b826200025a60201b60201c565b505b5050565b606081604051602001620003f39190620006fd565b6040516020818303038152906040529050919050565b826004810192821562000449579160200282015b828111156200044857825182908162000437919062000905565b50916020019190600101906200041d565b5b5090506200045891906200045c565b5090565b5b808211156200047f575f818162000475919062000483565b506001016200045d565b5090565b50805462000491906200053d565b5f825580601f10620004a45750620004c3565b601f0160209004905f5260205f2090810190620004c29190620004c6565b5b50565b5b80821115620004df575f815f905550600101620004c7565b5090565b7f4e487b71000000000000000000000000000000000000000000000000000000005f52603260045260245ffd5b7f4e487b71000000000000000000000000000000000000000000000000000000005f52602260045260245ffd5b5f60028204905060018216806200055557607f821691505b6020821081036200056b576200056a62000510565b5b50919050565b5f819050919050565b7f4e487b71000000000000000000000000000000000000000000000000000000005f52601160045260245ffd5b5f620005b38262000571565b9150620005c08362000571565b9250828201905080821115620005db57620005da6200057a565b5b92915050565b5f819050919050565b5f819050919050565b620006086200060282620005e1565b620005ea565b82525050565b5f6200061b8285620005f3565b6020820191506200062d8284620005f3565b6020820191508190509392505050565b5f620006498262000571565b91507fffffffffffffffffffffffffffffffffffffffffffffffffffffffffffffffff82036200067e576200067d6200057a565b5b600182019050919050565b5f81519050919050565b5f81905092915050565b5f5b83811015620006bc5780820151818401526020810190506200069f565b5f8484015250505050565b5f620006d38262000689565b620006df818562000693565b9350620006f18185602086016200069d565b80840191505092915050565b5f6200070a8284620006c7565b915081905092915050565b7f4e487b71000000000000000000000000000000000000000000000000000000005f52604160045260245ffd5b5f819050815f5260205f209050919050565b5f6020601f8301049050919050565b5f82821b905092915050565b5f60088302620007a07fffffffffffffffffffffffffffffffffffffffffffffffffffffffffffffffff8262000763565b620007ac868362000763565b95508019841693508086168417925050509392505050565b5f819050919050565b5f620007ed620007e7620007e18462000571565b620007c4565b62000571565b9050919050565b5f819050919050565b6200080883620007cd565b620008206200081782620007f4565b8484546200076f565b825550505050565b5f90565b6200083662000828565b62000843818484620007fd565b505050565b5b818110156200086a576200085e5f826200082c565b60018101905062000849565b5050565b601f821115620008b957620008838162000742565b6200088e8462000754565b810160208510156200089e578190505b620008b6620008ad8562000754565b83018262000848565b50505b505050565b5f82821c905092915050565b5f620008db5f1984600802620008be565b1980831691505092915050565b5f620008f58383620008ca565b9150826002028217905092915050565b620009108262000689565b67ffffffffffffffff8111156200092c576200092b62000715565b5b6200093882546200053d565b620009458282856200086e565b5f60209050601f8311600181146200097b575f841562000966578287015190505b620009728582620008e8565b865550620009e1565b601f1984166200098b8662000742565b5f5b82811015620009b4578489015182556001820191506020850194506020810190506200098d565b86831015620009d45784890151620009d0601f891682620008ca565b8355505b6001600288020188555050505b505050505050565b61084e80620009f75f395ff3fe608060405234801561000f575f80fd5b506004361061004a575f3560e01c80632637cccf1461004e578063501895ae1461007e57806352de70af146100ae5780636a11b2a8146100de575b5f80fd5b610068600480360381019061006391906104b6565b61010e565b604051610075919061056c565b60405180910390f35b61009860048036038101906100939190610585565b6101df565b6040516100a591906105bf565b60405180910390f35b6100c860048036038101906100c391906105d8565b6101fe565b6040516100d591906105bf565b60405180910390f35b6100f860048036038101906100f391906105d8565b610216565b6040516101059190610699565b60405180910390f35b5f80610119866101fe565b90505f5b83518110156101d0575f84828151811061013a576101396106b9565b5b602002602001015190505f6002886101529190610713565b0361018757828160405160200161016a929190610763565b6040516020818303038152906040528051906020012092506101b3565b808360405160200161019a929190610763565b6040516020818303038152906040528051906020012092505b6002876101c0919061078e565b965050808060010191505061011d565b50838114915050949350505050565b5f81815481106101ed575f80fd5b905f5260205f20015f915090505481565b5f61020882610216565b805190602001209050919050565b6060816040516020016102299190610802565b6040516020818303038152906040529050919050565b5f604051905090565b5f80fd5b5f80fd5b5f80fd5b5f80fd5b5f601f19601f8301169050919050565b7f4e487b71000000000000000000000000000000000000000000000000000000005f52604160045260245ffd5b61029e82610258565b810181811067ffffffffffffffff821117156102bd576102bc610268565b5b80604052505050565b5f6102cf61023f565b90506102db8282610295565b919050565b5f67ffffffffffffffff8211156102fa576102f9610268565b5b61030382610258565b9050602081019050919050565b828183375f83830152505050565b5f61033061032b846102e0565b6102c6565b90508281526020810184848401111561034c5761034b610254565b5b610357848285610310565b509392505050565b5f82601f83011261037357610372610250565b5b813561038384826020860161031e565b91505092915050565b5f819050919050565b61039e8161038c565b81146103a8575f80fd5b50565b5f813590506103b981610395565b92915050565b5f819050919050565b6103d1816103bf565b81146103db575f80fd5b50565b5f813590506103ec816103c8565b92915050565b5f67ffffffffffffffff82111561040c5761040b610268565b5b602082029050602081019050919050565b5f80fd5b5f61043361042e846103f2565b6102c6565b905080838252602082019050602084028301858111156104565761045561041d565b5b835b8181101561047f578061046b88826103de565b845260208401935050602081019050610458565b5050509392505050565b5f82601f83011261049d5761049c610250565b5b81356104ad848260208601610421565b91505092915050565b5f805f80608085870312156104ce576104cd610248565b5b5f85013567ffffffffffffffff8111156104eb576104ea61024c565b5b6104f78782880161035f565b9450506020610508878288016103ab565b9350506040610519878288016103de565b925050606085013567ffffffffffffffff81111561053a5761053961024c565b5b61054687828801610489565b91505092959194509250565b5f8115159050919050565b61056681610552565b82525050565b5f60208201905061057f5f83018461055d565b92915050565b5f6020828403121561059a57610599610248565b5b5f6105a7848285016103ab565b91505092915050565b6105b9816103bf565b82525050565b5f6020820190506105d25f8301846105b0565b92915050565b5f602082840312156105ed576105ec610248565b5b5f82013567ffffffffffffffff81111561060a5761060961024c565b5b6106168482850161035f565b91505092915050565b5f81519050919050565b5f82825260208201905092915050565b5f5b8381101561065657808201518184015260208101905061063b565b5f8484015250505050565b5f61066b8261061f565b6106758185610629565b9350610685818560208601610639565b61068e81610258565b840191505092915050565b5f6020820190508181035f8301526106b18184610661565b905092915050565b7f4e487b71000000000000000000000000000000000000000000000000000000005f52603260045260245ffd5b7f4e487b71000000000000000000000000000000000000000000000000000000005f52601260045260245ffd5b5f61071d8261038c565b91506107288361038c565b925082610738576107376106e6565b5b828206905092915050565b5f819050919050565b61075d610758826103bf565b610743565b82525050565b5f61076e828561074c565b60208201915061077e828461074c565b6020820191508190509392505050565b5f6107988261038c565b91506107a38361038c565b9250826107b3576107b26106e6565b5b828204905092915050565b5f81519050919050565b5f81905092915050565b5f6107dc826107be565b6107e681856107c8565b93506107f6818560208601610639565b80840191505092915050565b5f61080d82846107d2565b91508190509291505056fea2646970667358221220f4db2440041bf27a7a0c83ae10dc84a8f829c3d828d6e174d68d8ad310cc8c8864736f6c63430008160033",
					"opcodes": "PUSH1 0x80 PUSH1 0x40 MSTORE PUSH1 0x40 MLOAD DUP1 PUSH1 0x80 ADD PUSH1 0x40 MSTORE DUP1 PUSH1 0x40 MLOAD DUP1 PUSH1 0x40 ADD PUSH1 0x40 MSTORE DUP1 PUSH1 0x15 DUP2 MSTORE PUSH1 0x20 ADD PUSH32 0x5458313A20536865726C6F636B202D3E204A6F6E680000000000000000000000 DUP2 MSTORE POP DUP2 MSTORE PUSH1 0x20 ADD PUSH1 0x40 MLOAD DUP1 PUSH1 0x40 ADD PUSH1 0x40 MSTORE DUP1 PUSH1 0x15 DUP2 MSTORE PUSH1 0x20 ADD PUSH32 0x5458323A204A6F6E68202D3E20536865726C6F636B0000000000000000000000 DUP2 MSTORE POP DUP2 MSTORE PUSH1 0x20 ADD PUSH1 0x40 MLOAD DUP1 PUSH1 0x40 ADD PUSH1 0x40 MSTORE DUP1 PUSH1 0x15 DUP2 MSTORE PUSH1 0x20 ADD PUSH32 0x5458333A20536865726C6F636B202D3E204D6172790000000000000000000000 DUP2 MSTORE POP DUP2 MSTORE PUSH1 0x20 ADD PUSH1 0x40 MLOAD DUP1 PUSH1 0x40 ADD PUSH1 0x40 MSTORE DUP1 PUSH1 0x15 DUP2 MSTORE PUSH1 0x20 ADD PUSH32 0x5458343A204D617279202D3E20536865726C6F636B0000000000000000000000 DUP2 MSTORE POP DUP2 MSTORE POP PUSH1 0x1 SWAP1 PUSH1 0x4 PUSH3 0x10B SWAP3 SWAP2 SWAP1 PUSH3 0x409 JUMP JUMPDEST POP CALLVALUE DUP1 ISZERO PUSH3 0x118 JUMPI PUSH0 DUP1 REVERT JUMPDEST POP PUSH3 0x129 PUSH3 0x12F PUSH1 0x20 SHL PUSH1 0x20 SHR JUMP JUMPDEST PUSH3 0x9E9 JUMP JUMPDEST PUSH0 JUMPDEST PUSH1 0x4 DUP2 LT ISZERO PUSH3 0x224 JUMPI PUSH0 PUSH3 0x1F3 PUSH1 0x1 DUP4 PUSH1 0x4 DUP2 LT PUSH3 0x157 JUMPI PUSH3 0x156 PUSH3 0x4E3 JUMP JUMPDEST JUMPDEST ADD DUP1 SLOAD PUSH3 0x165 SWAP1 PUSH3 0x53D JUMP JUMPDEST DUP1 PUSH1 0x1F ADD PUSH1 0x20 DUP1 SWAP2 DIV MUL PUSH1 0x20 ADD PUSH1 0x40 MLOAD SWAP1 DUP2 ADD PUSH1 0x40 MSTORE DUP1 SWAP3 SWAP2 SWAP1 DUP2 DUP2 MSTORE PUSH1 0x20 ADD DUP3 DUP1 SLOAD PUSH3 0x193 SWAP1 PUSH3 0x53D JUMP JUMPDEST DUP1 ISZERO PUSH3 0x1E2 JUMPI DUP1 PUSH1 0x1F LT PUSH3 0x1B8 JUMPI PUSH2 0x100 DUP1 DUP4 SLOAD DIV MUL DUP4 MSTORE SWAP2 PUSH1 0x20 ADD SWAP2 PUSH3 0x1E2 JUMP JUMPDEST DUP3 ADD SWAP2 SWAP1 PUSH0 MSTORE PUSH1 0x20 PUSH0 KECCAK256 SWAP1 JUMPDEST DUP2 SLOAD DUP2 MSTORE SWAP1 PUSH1 0x1 ADD SWAP1 PUSH1 0x20 ADD DUP1 DUP4 GT PUSH3 0x1C4 JUMPI DUP3 SWAP1 SUB PUSH1 0x1F AND DUP3 ADD SWAP2 JUMPDEST POP POP POP POP POP PUSH3 0x23A PUSH1 0x20 SHL PUSH1 0x20 SHR JUMP JUMPDEST SWAP1 DUP1 PUSH1 0x1 DUP2 SLOAD ADD DUP1 DUP3 SSTORE DUP1 SWAP2 POP POP PUSH1 0x1 SWAP1 SUB SWAP1 PUSH0 MSTORE PUSH1 0x20 PUSH0 KECCAK256 ADD PUSH0 SWAP1 SWAP2 SWAP1 SWAP2 SWAP1 SWAP2 POP SSTORE DUP1 DUP1 PUSH1 0x1 ADD SWAP2 POP POP PUSH3 0x131 JUMP JUMPDEST POP PUSH3 0x238 PUSH0 PUSH1 0x4 PUSH3 0x25A PUSH1 0x20 SHL PUSH1 0x20 SHR JUMP JUMPDEST JUMP JUMPDEST PUSH0 PUSH3 0x24C DUP3 PUSH3 0x3DE PUSH1 0x20 SHL PUSH1 0x20 SHR JUMP JUMPDEST DUP1 MLOAD SWAP1 PUSH1 0x20 ADD KECCAK256 SWAP1 POP SWAP2 SWAP1 POP JUMP JUMPDEST PUSH1 0x1 DUP2 SUB ISZERO PUSH3 0x3DA JUMPI PUSH0 DUP1 JUMPDEST DUP3 DUP2 LT ISZERO PUSH3 0x3B8 JUMPI DUP3 PUSH1 0x1 DUP3 PUSH3 0x280 SWAP2 SWAP1 PUSH3 0x5A7 JUMP JUMPDEST LT ISZERO PUSH3 0x340 JUMPI PUSH0 DUP1 DUP3 DUP7 PUSH3 0x297 SWAP2 SWAP1 PUSH3 0x5A7 JUMP JUMPDEST DUP2 SLOAD DUP2 LT PUSH3 0x2AB JUMPI PUSH3 0x2AA PUSH3 0x4E3 JUMP JUMPDEST JUMPDEST SWAP1 PUSH0 MSTORE PUSH1 0x20 PUSH0 KECCAK256 ADD SLOAD PUSH0 PUSH1 0x1 DUP5 DUP9 PUSH3 0x2C5 SWAP2 SWAP1 PUSH3 0x5A7 JUMP JUMPDEST PUSH3 0x2D1 SWAP2 SWAP1 PUSH3 0x5A7 JUMP JUMPDEST DUP2 SLOAD DUP2 LT PUSH3 0x2E5 JUMPI PUSH3 0x2E4 PUSH3 0x4E3 JUMP JUMPDEST JUMPDEST SWAP1 PUSH0 MSTORE PUSH1 0x20 PUSH0 KECCAK256 ADD SLOAD PUSH1 0x40 MLOAD PUSH1 0x20 ADD PUSH3 0x301 SWAP3 SWAP2 SWAP1 PUSH3 0x60E JUMP JUMPDEST PUSH1 0x40 MLOAD PUSH1 0x20 DUP2 DUP4 SUB SUB DUP2 MSTORE SWAP1 PUSH1 0x40 MSTORE DUP1 MLOAD SWAP1 PUSH1 0x20 ADD KECCAK256 SWAP1 DUP1 PUSH1 0x1 DUP2 SLOAD ADD DUP1 DUP3 SSTORE DUP1 SWAP2 POP POP PUSH1 0x1 SWAP1 SUB SWAP1 PUSH0 MSTORE PUSH1 0x20 PUSH0 KECCAK256 ADD PUSH0 SWAP1 SWAP2 SWAP1 SWAP2 SWAP1 SWAP2 POP SSTORE PUSH3 0x391 JUMP JUMPDEST PUSH0 DUP1 DUP3 DUP7 PUSH3 0x350 SWAP2 SWAP1 PUSH3 0x5A7 JUMP JUMPDEST DUP2 SLOAD DUP2 LT PUSH3 0x364 JUMPI PUSH3 0x363 PUSH3 0x4E3 JUMP JUMPDEST JUMPDEST SWAP1 PUSH0 MSTORE PUSH1 0x20 PUSH0 KECCAK256 ADD SLOAD SWAP1 DUP1 PUSH1 0x1 DUP2 SLOAD ADD DUP1 DUP3 SSTORE DUP1 SWAP2 POP POP PUSH1 0x1 SWAP1 SUB SWAP1 PUSH0 MSTORE PUSH1 0x20 PUSH0 KECCAK256 ADD PUSH0 SWAP1 SWAP2 SWAP1 SWAP2 SWAP1 SWAP2 POP SSTORE JUMPDEST DUP2 DUP1 PUSH3 0x39E SWAP1 PUSH3 0x63D JUMP JUMPDEST SWAP3 POP POP PUSH1 0x2 DUP2 PUSH3 0x3B0 SWAP2 SWAP1 PUSH3 0x5A7 JUMP JUMPDEST SWAP1 POP PUSH3 0x267 JUMP JUMPDEST POP PUSH3 0x3D8 DUP3 DUP5 PUSH3 0x3CB SWAP2 SWAP1 PUSH3 0x5A7 JUMP JUMPDEST DUP3 PUSH3 0x25A PUSH1 0x20 SHL PUSH1 0x20 SHR JUMP JUMPDEST POP JUMPDEST POP POP JUMP JUMPDEST PUSH1 0x60 DUP2 PUSH1 0x40 MLOAD PUSH1 0x20 ADD PUSH3 0x3F3 SWAP2 SWAP1 PUSH3 0x6FD JUMP JUMPDEST PUSH1 0x40 MLOAD PUSH1 0x20 DUP2 DUP4 SUB SUB DUP2 MSTORE SWAP1 PUSH1 0x40 MSTORE SWAP1 POP SWAP2 SWAP1 POP JUMP JUMPDEST DUP3 PUSH1 0x4 DUP2 ADD SWAP3 DUP3 ISZERO PUSH3 0x449 JUMPI SWAP2 PUSH1 0x20 MUL DUP3 ADD JUMPDEST DUP3 DUP2 GT ISZERO PUSH3 0x448 JUMPI DUP3 MLOAD DUP3 SWAP1 DUP2 PUSH3 0x437 SWAP2 SWAP1 PUSH3 0x905 JUMP JUMPDEST POP SWAP2 PUSH1 0x20 ADD SWAP2 SWAP1 PUSH1 0x1 ADD SWAP1 PUSH3 0x41D JUMP JUMPDEST JUMPDEST POP SWAP1 POP PUSH3 0x458 SWAP2 SWAP1 PUSH3 0x45C JUMP JUMPDEST POP SWAP1 JUMP JUMPDEST JUMPDEST DUP1 DUP3 GT ISZERO PUSH3 0x47F JUMPI PUSH0 DUP2 DUP2 PUSH3 0x475 SWAP2 SWAP1 PUSH3 0x483 JUMP JUMPDEST POP PUSH1 0x1 ADD PUSH3 0x45D JUMP JUMPDEST POP SWAP1 JUMP JUMPDEST POP DUP1 SLOAD PUSH3 0x491 SWAP1 PUSH3 0x53D JUMP JUMPDEST PUSH0 DUP3 SSTORE DUP1 PUSH1 0x1F LT PUSH3 0x4A4 JUMPI POP PUSH3 0x4C3 JUMP JUMPDEST PUSH1 0x1F ADD PUSH1 0x20 SWAP1 DIV SWAP1 PUSH0 MSTORE PUSH1 0x20 PUSH0 KECCAK256 SWAP1 DUP2 ADD SWAP1 PUSH3 0x4C2 SWAP2 SWAP1 PUSH3 0x4C6 JUMP JUMPDEST JUMPDEST POP JUMP JUMPDEST JUMPDEST DUP1 DUP3 GT ISZERO PUSH3 0x4DF JUMPI PUSH0 DUP2 PUSH0 SWAP1 SSTORE POP PUSH1 0x1 ADD PUSH3 0x4C7 JUMP JUMPDEST POP SWAP1 JUMP JUMPDEST PUSH32 0x4E487B7100000000000000000000000000000000000000000000000000000000 PUSH0 MSTORE PUSH1 0x32 PUSH1 0x4 MSTORE PUSH1 0x24 PUSH0 REVERT JUMPDEST PUSH32 0x4E487B7100000000000000000000000000000000000000000000000000000000 PUSH0 MSTORE PUSH1 0x22 PUSH1 0x4 MSTORE PUSH1 0x24 PUSH0 REVERT JUMPDEST PUSH0 PUSH1 0x2 DUP3 DIV SWAP1 POP PUSH1 0x1 DUP3 AND DUP1 PUSH3 0x555 JUMPI PUSH1 0x7F DUP3 AND SWAP2 POP JUMPDEST PUSH1 0x20 DUP3 LT DUP2 SUB PUSH3 0x56B JUMPI PUSH3 0x56A PUSH3 0x510 JUMP JUMPDEST JUMPDEST POP SWAP2 SWAP1 POP JUMP JUMPDEST PUSH0 DUP2 SWAP1 POP SWAP2 SWAP1 POP JUMP JUMPDEST PUSH32 0x4E487B7100000000000000000000000000000000000000000000000000000000 PUSH0 MSTORE PUSH1 0x11 PUSH1 0x4 MSTORE PUSH1 0x24 PUSH0 REVERT JUMPDEST PUSH0 PUSH3 0x5B3 DUP3 PUSH3 0x571 JUMP JUMPDEST SWAP2 POP PUSH3 0x5C0 DUP4 PUSH3 0x571 JUMP JUMPDEST SWAP3 POP DUP3 DUP3 ADD SWAP1 POP DUP1 DUP3 GT ISZERO PUSH3 0x5DB JUMPI PUSH3 0x5DA PUSH3 0x57A JUMP JUMPDEST JUMPDEST SWAP3 SWAP2 POP POP JUMP JUMPDEST PUSH0 DUP2 SWAP1 POP SWAP2 SWAP1 POP JUMP JUMPDEST PUSH0 DUP2 SWAP1 POP SWAP2 SWAP1 POP JUMP JUMPDEST PUSH3 0x608 PUSH3 0x602 DUP3 PUSH3 0x5E1 JUMP JUMPDEST PUSH3 0x5EA JUMP JUMPDEST DUP3 MSTORE POP POP JUMP JUMPDEST PUSH0 PUSH3 0x61B DUP3 DUP6 PUSH3 0x5F3 JUMP JUMPDEST PUSH1 0x20 DUP3 ADD SWAP2 POP PUSH3 0x62D DUP3 DUP5 PUSH3 0x5F3 JUMP JUMPDEST PUSH1 0x20 DUP3 ADD SWAP2 POP DUP2 SWAP1 POP SWAP4 SWAP3 POP POP POP JUMP JUMPDEST PUSH0 PUSH3 0x649 DUP3 PUSH3 0x571 JUMP JUMPDEST SWAP2 POP PUSH32 0xFFFFFFFFFFFFFFFFFFFFFFFFFFFFFFFFFFFFFFFFFFFFFFFFFFFFFFFFFFFFFFFF DUP3 SUB PUSH3 0x67E JUMPI PUSH3 0x67D PUSH3 0x57A JUMP JUMPDEST JUMPDEST PUSH1 0x1 DUP3 ADD SWAP1 POP SWAP2 SWAP1 POP JUMP JUMPDEST PUSH0 DUP2 MLOAD SWAP1 POP SWAP2 SWAP1 POP JUMP JUMPDEST PUSH0 DUP2 SWAP1 POP SWAP3 SWAP2 POP POP JUMP JUMPDEST PUSH0 JUMPDEST DUP4 DUP2 LT ISZERO PUSH3 0x6BC JUMPI DUP1 DUP3 ADD MLOAD DUP2 DUP5 ADD MSTORE PUSH1 0x20 DUP2 ADD SWAP1 POP PUSH3 0x69F JUMP JUMPDEST PUSH0 DUP5 DUP5 ADD MSTORE POP POP POP POP JUMP JUMPDEST PUSH0 PUSH3 0x6D3 DUP3 PUSH3 0x689 JUMP JUMPDEST PUSH3 0x6DF DUP2 DUP6 PUSH3 0x693 JUMP JUMPDEST SWAP4 POP PUSH3 0x6F1 DUP2 DUP6 PUSH1 0x20 DUP7 ADD PUSH3 0x69D JUMP JUMPDEST DUP1 DUP5 ADD SWAP2 POP POP SWAP3 SWAP2 POP POP JUMP JUMPDEST PUSH0 PUSH3 0x70A DUP3 DUP5 PUSH3 0x6C7 JUMP JUMPDEST SWAP2 POP DUP2 SWAP1 POP SWAP3 SWAP2 POP POP JUMP JUMPDEST PUSH32 0x4E487B7100000000000000000000000000000000000000000000000000000000 PUSH0 MSTORE PUSH1 0x41 PUSH1 0x4 MSTORE PUSH1 0x24 PUSH0 REVERT JUMPDEST PUSH0 DUP2 SWAP1 POP DUP2 PUSH0 MSTORE PUSH1 0x20 PUSH0 KECCAK256 SWAP1 POP SWAP2 SWAP1 POP JUMP JUMPDEST PUSH0 PUSH1 0x20 PUSH1 0x1F DUP4 ADD DIV SWAP1 POP SWAP2 SWAP1 POP JUMP JUMPDEST PUSH0 DUP3 DUP3 SHL SWAP1 POP SWAP3 SWAP2 POP POP JUMP JUMPDEST PUSH0 PUSH1 0x8 DUP4 MUL PUSH3 0x7A0 PUSH32 0xFFFFFFFFFFFFFFFFFFFFFFFFFFFFFFFFFFFFFFFFFFFFFFFFFFFFFFFFFFFFFFFF DUP3 PUSH3 0x763 JUMP JUMPDEST PUSH3 0x7AC DUP7 DUP4 PUSH3 0x763 JUMP JUMPDEST SWAP6 POP DUP1 NOT DUP5 AND SWAP4 POP DUP1 DUP7 AND DUP5 OR SWAP3 POP POP POP SWAP4 SWAP3 POP POP POP JUMP JUMPDEST PUSH0 DUP2 SWAP1 POP SWAP2 SWAP1 POP JUMP JUMPDEST PUSH0 PUSH3 0x7ED PUSH3 0x7E7 PUSH3 0x7E1 DUP5 PUSH3 0x571 JUMP JUMPDEST PUSH3 0x7C4 JUMP JUMPDEST PUSH3 0x571 JUMP JUMPDEST SWAP1 POP SWAP2 SWAP1 POP JUMP JUMPDEST PUSH0 DUP2 SWAP1 POP SWAP2 SWAP1 POP JUMP JUMPDEST PUSH3 0x808 DUP4 PUSH3 0x7CD JUMP JUMPDEST PUSH3 0x820 PUSH3 0x817 DUP3 PUSH3 0x7F4 JUMP JUMPDEST DUP5 DUP5 SLOAD PUSH3 0x76F JUMP JUMPDEST DUP3 SSTORE POP POP POP POP JUMP JUMPDEST PUSH0 SWAP1 JUMP JUMPDEST PUSH3 0x836 PUSH3 0x828 JUMP JUMPDEST PUSH3 0x843 DUP2 DUP5 DUP5 PUSH3 0x7FD JUMP JUMPDEST POP POP POP JUMP JUMPDEST JUMPDEST DUP2 DUP2 LT ISZERO PUSH3 0x86A JUMPI PUSH3 0x85E PUSH0 DUP3 PUSH3 0x82C JUMP JUMPDEST PUSH1 0x1 DUP2 ADD SWAP1 POP PUSH3 0x849 JUMP JUMPDEST POP POP JUMP JUMPDEST PUSH1 0x1F DUP3 GT ISZERO PUSH3 0x8B9 JUMPI PUSH3 0x883 DUP2 PUSH3 0x742 JUMP JUMPDEST PUSH3 0x88E DUP5 PUSH3 0x754 JUMP JUMPDEST DUP2 ADD PUSH1 0x20 DUP6 LT ISZERO PUSH3 0x89E JUMPI DUP2 SWAP1 POP JUMPDEST PUSH3 0x8B6 PUSH3 0x8AD DUP6 PUSH3 0x754 JUMP JUMPDEST DUP4 ADD DUP3 PUSH3 0x848 JUMP JUMPDEST POP POP JUMPDEST POP POP POP JUMP JUMPDEST PUSH0 DUP3 DUP3 SHR SWAP1 POP SWAP3 SWAP2 POP POP JUMP JUMPDEST PUSH0 PUSH3 0x8DB PUSH0 NOT DUP5 PUSH1 0x8 MUL PUSH3 0x8BE JUMP JUMPDEST NOT DUP1 DUP4 AND SWAP2 POP POP SWAP3 SWAP2 POP POP JUMP JUMPDEST PUSH0 PUSH3 0x8F5 DUP4 DUP4 PUSH3 0x8CA JUMP JUMPDEST SWAP2 POP DUP3 PUSH1 0x2 MUL DUP3 OR SWAP1 POP SWAP3 SWAP2 POP POP JUMP JUMPDEST PUSH3 0x910 DUP3 PUSH3 0x689 JUMP JUMPDEST PUSH8 0xFFFFFFFFFFFFFFFF DUP2 GT ISZERO PUSH3 0x92C JUMPI PUSH3 0x92B PUSH3 0x715 JUMP JUMPDEST JUMPDEST PUSH3 0x938 DUP3 SLOAD PUSH3 0x53D JUMP JUMPDEST PUSH3 0x945 DUP3 DUP3 DUP6 PUSH3 0x86E JUMP JUMPDEST PUSH0 PUSH1 0x20 SWAP1 POP PUSH1 0x1F DUP4 GT PUSH1 0x1 DUP2 EQ PUSH3 0x97B JUMPI PUSH0 DUP5 ISZERO PUSH3 0x966 JUMPI DUP3 DUP8 ADD MLOAD SWAP1 POP JUMPDEST PUSH3 0x972 DUP6 DUP3 PUSH3 0x8E8 JUMP JUMPDEST DUP7 SSTORE POP PUSH3 0x9E1 JUMP JUMPDEST PUSH1 0x1F NOT DUP5 AND PUSH3 0x98B DUP7 PUSH3 0x742 JUMP JUMPDEST PUSH0 JUMPDEST DUP3 DUP2 LT ISZERO PUSH3 0x9B4 JUMPI DUP5 DUP10 ADD MLOAD DUP3 SSTORE PUSH1 0x1 DUP3 ADD SWAP2 POP PUSH1 0x20 DUP6 ADD SWAP5 POP PUSH1 0x20 DUP2 ADD SWAP1 POP PUSH3 0x98D JUMP JUMPDEST DUP7 DUP4 LT ISZERO PUSH3 0x9D4 JUMPI DUP5 DUP10 ADD MLOAD PUSH3 0x9D0 PUSH1 0x1F DUP10 AND DUP3 PUSH3 0x8CA JUMP JUMPDEST DUP4 SSTORE POP JUMPDEST PUSH1 0x1 PUSH1 0x2 DUP9 MUL ADD DUP9 SSTORE POP POP POP JUMPDEST POP POP POP POP POP POP JUMP JUMPDEST PUSH2 0x84E DUP1 PUSH3 0x9F7 PUSH0 CODECOPY PUSH0 RETURN INVALID PUSH1 0x80 PUSH1 0x40 MSTORE CALLVALUE DUP1 ISZERO PUSH2 0xF JUMPI PUSH0 DUP1 REVERT JUMPDEST POP PUSH1 0x4 CALLDATASIZE LT PUSH2 0x4A JUMPI PUSH0 CALLDATALOAD PUSH1 0xE0 SHR DUP1 PUSH4 0x2637CCCF EQ PUSH2 0x4E JUMPI DUP1 PUSH4 0x501895AE EQ PUSH2 0x7E JUMPI DUP1 PUSH4 0x52DE70AF EQ PUSH2 0xAE JUMPI DUP1 PUSH4 0x6A11B2A8 EQ PUSH2 0xDE JUMPI JUMPDEST PUSH0 DUP1 REVERT JUMPDEST PUSH2 0x68 PUSH1 0x4 DUP1 CALLDATASIZE SUB DUP2 ADD SWAP1 PUSH2 0x63 SWAP2 SWAP1 PUSH2 0x4B6 JUMP JUMPDEST PUSH2 0x10E JUMP JUMPDEST PUSH1 0x40 MLOAD PUSH2 0x75 SWAP2 SWAP1 PUSH2 0x56C JUMP JUMPDEST PUSH1 0x40 MLOAD DUP1 SWAP2 SUB SWAP1 RETURN JUMPDEST PUSH2 0x98 PUSH1 0x4 DUP1 CALLDATASIZE SUB DUP2 ADD SWAP1 PUSH2 0x93 SWAP2 SWAP1 PUSH2 0x585 JUMP JUMPDEST PUSH2 0x1DF JUMP JUMPDEST PUSH1 0x40 MLOAD PUSH2 0xA5 SWAP2 SWAP1 PUSH2 0x5BF JUMP JUMPDEST PUSH1 0x40 MLOAD DUP1 SWAP2 SUB SWAP1 RETURN JUMPDEST PUSH2 0xC8 PUSH1 0x4 DUP1 CALLDATASIZE SUB DUP2 ADD SWAP1 PUSH2 0xC3 SWAP2 SWAP1 PUSH2 0x5D8 JUMP JUMPDEST PUSH2 0x1FE JUMP JUMPDEST PUSH1 0x40 MLOAD PUSH2 0xD5 SWAP2 SWAP1 PUSH2 0x5BF JUMP JUMPDEST PUSH1 0x40 MLOAD DUP1 SWAP2 SUB SWAP1 RETURN JUMPDEST PUSH2 0xF8 PUSH1 0x4 DUP1 CALLDATASIZE SUB DUP2 ADD SWAP1 PUSH2 0xF3 SWAP2 SWAP1 PUSH2 0x5D8 JUMP JUMPDEST PUSH2 0x216 JUMP JUMPDEST PUSH1 0x40 MLOAD PUSH2 0x105 SWAP2 SWAP1 PUSH2 0x699 JUMP JUMPDEST PUSH1 0x40 MLOAD DUP1 SWAP2 SUB SWAP1 RETURN JUMPDEST PUSH0 DUP1 PUSH2 0x119 DUP7 PUSH2 0x1FE JUMP JUMPDEST SWAP1 POP PUSH0 JUMPDEST DUP4 MLOAD DUP2 LT ISZERO PUSH2 0x1D0 JUMPI PUSH0 DUP5 DUP3 DUP2 MLOAD DUP2 LT PUSH2 0x13A JUMPI PUSH2 0x139 PUSH2 0x6B9 JUMP JUMPDEST JUMPDEST PUSH1 0x20 MUL PUSH1 0x20 ADD ADD MLOAD SWAP1 POP PUSH0 PUSH1 0x2 DUP9 PUSH2 0x152 SWAP2 SWAP1 PUSH2 0x713 JUMP JUMPDEST SUB PUSH2 0x187 JUMPI DUP3 DUP2 PUSH1 0x40 MLOAD PUSH1 0x20 ADD PUSH2 0x16A SWAP3 SWAP2 SWAP1 PUSH2 0x763 JUMP JUMPDEST PUSH1 0x40 MLOAD PUSH1 0x20 DUP2 DUP4 SUB SUB DUP2 MSTORE SWAP1 PUSH1 0x40 MSTORE DUP1 MLOAD SWAP1 PUSH1 0x20 ADD KECCAK256 SWAP3 POP PUSH2 0x1B3 JUMP JUMPDEST DUP1 DUP4 PUSH1 0x40 MLOAD PUSH1 0x20 ADD PUSH2 0x19A SWAP3 SWAP2 SWAP1 PUSH2 0x763 JUMP JUMPDEST PUSH1 0x40 MLOAD PUSH1 0x20 DUP2 DUP4 SUB SUB DUP2 MSTORE SWAP1 PUSH1 0x40 MSTORE DUP1 MLOAD SWAP1 PUSH1 0x20 ADD KECCAK256 SWAP3 POP JUMPDEST PUSH1 0x2 DUP8 PUSH2 0x1C0 SWAP2 SWAP1 PUSH2 0x78E JUMP JUMPDEST SWAP7 POP POP DUP1 DUP1 PUSH1 0x1 ADD SWAP2 POP POP PUSH2 0x11D JUMP JUMPDEST POP DUP4 DUP2 EQ SWAP2 POP POP SWAP5 SWAP4 POP POP POP POP JUMP JUMPDEST PUSH0 DUP2 DUP2 SLOAD DUP2 LT PUSH2 0x1ED JUMPI PUSH0 DUP1 REVERT JUMPDEST SWAP1 PUSH0 MSTORE PUSH1 0x20 PUSH0 KECCAK256 ADD PUSH0 SWAP2 POP SWAP1 POP SLOAD DUP2 JUMP JUMPDEST PUSH0 PUSH2 0x208 DUP3 PUSH2 0x216 JUMP JUMPDEST DUP1 MLOAD SWAP1 PUSH1 0x20 ADD KECCAK256 SWAP1 POP SWAP2 SWAP1 POP JUMP JUMPDEST PUSH1 0x60 DUP2 PUSH1 0x40 MLOAD PUSH1 0x20 ADD PUSH2 0x229 SWAP2 SWAP1 PUSH2 0x802 JUMP JUMPDEST PUSH1 0x40 MLOAD PUSH1 0x20 DUP2 DUP4 SUB SUB DUP2 MSTORE SWAP1 PUSH1 0x40 MSTORE SWAP1 POP SWAP2 SWAP1 POP JUMP JUMPDEST PUSH0 PUSH1 0x40 MLOAD SWAP1 POP SWAP1 JUMP JUMPDEST PUSH0 DUP1 REVERT JUMPDEST PUSH0 DUP1 REVERT JUMPDEST PUSH0 DUP1 REVERT JUMPDEST PUSH0 DUP1 REVERT JUMPDEST PUSH0 PUSH1 0x1F NOT PUSH1 0x1F DUP4 ADD AND SWAP1 POP SWAP2 SWAP1 POP JUMP JUMPDEST PUSH32 0x4E487B7100000000000000000000000000000000000000000000000000000000 PUSH0 MSTORE PUSH1 0x41 PUSH1 0x4 MSTORE PUSH1 0x24 PUSH0 REVERT JUMPDEST PUSH2 0x29E DUP3 PUSH2 0x258 JUMP JUMPDEST DUP2 ADD DUP2 DUP2 LT PUSH8 0xFFFFFFFFFFFFFFFF DUP3 GT OR ISZERO PUSH2 0x2BD JUMPI PUSH2 0x2BC PUSH2 0x268 JUMP JUMPDEST JUMPDEST DUP1 PUSH1 0x40 MSTORE POP POP POP JUMP JUMPDEST PUSH0 PUSH2 0x2CF PUSH2 0x23F JUMP JUMPDEST SWAP1 POP PUSH2 0x2DB DUP3 DUP3 PUSH2 0x295 JUMP JUMPDEST SWAP2 SWAP1 POP JUMP JUMPDEST PUSH0 PUSH8 0xFFFFFFFFFFFFFFFF DUP3 GT ISZERO PUSH2 0x2FA JUMPI PUSH2 0x2F9 PUSH2 0x268 JUMP JUMPDEST JUMPDEST PUSH2 0x303 DUP3 PUSH2 0x258 JUMP JUMPDEST SWAP1 POP PUSH1 0x20 DUP2 ADD SWAP1 POP SWAP2 SWAP1 POP JUMP JUMPDEST DUP3 DUP2 DUP4 CALLDATACOPY PUSH0 DUP4 DUP4 ADD MSTORE POP POP POP JUMP JUMPDEST PUSH0 PUSH2 0x330 PUSH2 0x32B DUP5 PUSH2 0x2E0 JUMP JUMPDEST PUSH2 0x2C6 JUMP JUMPDEST SWAP1 POP DUP3 DUP2 MSTORE PUSH1 0x20 DUP2 ADD DUP5 DUP5 DUP5 ADD GT ISZERO PUSH2 0x34C JUMPI PUSH2 0x34B PUSH2 0x254 JUMP JUMPDEST JUMPDEST PUSH2 0x357 DUP5 DUP3 DUP6 PUSH2 0x310 JUMP JUMPDEST POP SWAP4 SWAP3 POP POP POP JUMP JUMPDEST PUSH0 DUP3 PUSH1 0x1F DUP4 ADD SLT PUSH2 0x373 JUMPI PUSH2 0x372 PUSH2 0x250 JUMP JUMPDEST JUMPDEST DUP2 CALLDATALOAD PUSH2 0x383 DUP5 DUP3 PUSH1 0x20 DUP7 ADD PUSH2 0x31E JUMP JUMPDEST SWAP2 POP POP SWAP3 SWAP2 POP POP JUMP JUMPDEST PUSH0 DUP2 SWAP1 POP SWAP2 SWAP1 POP JUMP JUMPDEST PUSH2 0x39E DUP2 PUSH2 0x38C JUMP JUMPDEST DUP2 EQ PUSH2 0x3A8 JUMPI PUSH0 DUP1 REVERT JUMPDEST POP JUMP JUMPDEST PUSH0 DUP2 CALLDATALOAD SWAP1 POP PUSH2 0x3B9 DUP2 PUSH2 0x395 JUMP JUMPDEST SWAP3 SWAP2 POP POP JUMP JUMPDEST PUSH0 DUP2 SWAP1 POP SWAP2 SWAP1 POP JUMP JUMPDEST PUSH2 0x3D1 DUP2 PUSH2 0x3BF JUMP JUMPDEST DUP2 EQ PUSH2 0x3DB JUMPI PUSH0 DUP1 REVERT JUMPDEST POP JUMP JUMPDEST PUSH0 DUP2 CALLDATALOAD SWAP1 POP PUSH2 0x3EC DUP2 PUSH2 0x3C8 JUMP JUMPDEST SWAP3 SWAP2 POP POP JUMP JUMPDEST PUSH0 PUSH8 0xFFFFFFFFFFFFFFFF DUP3 GT ISZERO PUSH2 0x40C JUMPI PUSH2 0x40B PUSH2 0x268 JUMP JUMPDEST JUMPDEST PUSH1 0x20 DUP3 MUL SWAP1 POP PUSH1 0x20 DUP2 ADD SWAP1 POP SWAP2 SWAP1 POP JUMP JUMPDEST PUSH0 DUP1 REVERT JUMPDEST PUSH0 PUSH2 0x433 PUSH2 0x42E DUP5 PUSH2 0x3F2 JUMP JUMPDEST PUSH2 0x2C6 JUMP JUMPDEST SWAP1 POP DUP1 DUP4 DUP3 MSTORE PUSH1 0x20 DUP3 ADD SWAP1 POP PUSH1 0x20 DUP5 MUL DUP4 ADD DUP6 DUP2 GT ISZERO PUSH2 0x456 JUMPI PUSH2 0x455 PUSH2 0x41D JUMP JUMPDEST JUMPDEST DUP4 JUMPDEST DUP2 DUP2 LT ISZERO PUSH2 0x47F JUMPI DUP1 PUSH2 0x46B DUP9 DUP3 PUSH2 0x3DE JUMP JUMPDEST DUP5 MSTORE PUSH1 0x20 DUP5 ADD SWAP4 POP POP PUSH1 0x20 DUP2 ADD SWAP1 POP PUSH2 0x458 JUMP JUMPDEST POP POP POP SWAP4 SWAP3 POP POP POP JUMP JUMPDEST PUSH0 DUP3 PUSH1 0x1F DUP4 ADD SLT PUSH2 0x49D JUMPI PUSH2 0x49C PUSH2 0x250 JUMP JUMPDEST JUMPDEST DUP2 CALLDATALOAD PUSH2 0x4AD DUP5 DUP3 PUSH1 0x20 DUP7 ADD PUSH2 0x421 JUMP JUMPDEST SWAP2 POP POP SWAP3 SWAP2 POP POP JUMP JUMPDEST PUSH0 DUP1 PUSH0 DUP1 PUSH1 0x80 DUP6 DUP8 SUB SLT ISZERO PUSH2 0x4CE JUMPI PUSH2 0x4CD PUSH2 0x248 JUMP JUMPDEST JUMPDEST PUSH0 DUP6 ADD CALLDATALOAD PUSH8 0xFFFFFFFFFFFFFFFF DUP2 GT ISZERO PUSH2 0x4EB JUMPI PUSH2 0x4EA PUSH2 0x24C JUMP JUMPDEST JUMPDEST PUSH2 0x4F7 DUP8 DUP3 DUP9 ADD PUSH2 0x35F JUMP JUMPDEST SWAP5 POP POP PUSH1 0x20 PUSH2 0x508 DUP8 DUP3 DUP9 ADD PUSH2 0x3AB JUMP JUMPDEST SWAP4 POP POP PUSH1 0x40 PUSH2 0x519 DUP8 DUP3 DUP9 ADD PUSH2 0x3DE JUMP JUMPDEST SWAP3 POP POP PUSH1 0x60 DUP6 ADD CALLDATALOAD PUSH8 0xFFFFFFFFFFFFFFFF DUP2 GT ISZERO PUSH2 0x53A JUMPI PUSH2 0x539 PUSH2 0x24C JUMP JUMPDEST JUMPDEST PUSH2 0x546 DUP8 DUP3 DUP9 ADD PUSH2 0x489 JUMP JUMPDEST SWAP2 POP POP SWAP3 SWAP6 SWAP2 SWAP5 POP SWAP3 POP JUMP JUMPDEST PUSH0 DUP2 ISZERO ISZERO SWAP1 POP SWAP2 SWAP1 POP JUMP JUMPDEST PUSH2 0x566 DUP2 PUSH2 0x552 JUMP JUMPDEST DUP3 MSTORE POP POP JUMP JUMPDEST PUSH0 PUSH1 0x20 DUP3 ADD SWAP1 POP PUSH2 0x57F PUSH0 DUP4 ADD DUP5 PUSH2 0x55D JUMP JUMPDEST SWAP3 SWAP2 POP POP JUMP JUMPDEST PUSH0 PUSH1 0x20 DUP3 DUP5 SUB SLT ISZERO PUSH2 0x59A JUMPI PUSH2 0x599 PUSH2 0x248 JUMP JUMPDEST JUMPDEST PUSH0 PUSH2 0x5A7 DUP5 DUP3 DUP6 ADD PUSH2 0x3AB JUMP JUMPDEST SWAP2 POP POP SWAP3 SWAP2 POP POP JUMP JUMPDEST PUSH2 0x5B9 DUP2 PUSH2 0x3BF JUMP JUMPDEST DUP3 MSTORE POP POP JUMP JUMPDEST PUSH0 PUSH1 0x20 DUP3 ADD SWAP1 POP PUSH2 0x5D2 PUSH0 DUP4 ADD DUP5 PUSH2 0x5B0 JUMP JUMPDEST SWAP3 SWAP2 POP POP JUMP JUMPDEST PUSH0 PUSH1 0x20 DUP3 DUP5 SUB SLT ISZERO PUSH2 0x5ED JUMPI PUSH2 0x5EC PUSH2 0x248 JUMP JUMPDEST JUMPDEST PUSH0 DUP3 ADD CALLDATALOAD PUSH8 0xFFFFFFFFFFFFFFFF DUP2 GT ISZERO PUSH2 0x60A JUMPI PUSH2 0x609 PUSH2 0x24C JUMP JUMPDEST JUMPDEST PUSH2 0x616 DUP5 DUP3 DUP6 ADD PUSH2 0x35F JUMP JUMPDEST SWAP2 POP POP SWAP3 SWAP2 POP POP JUMP JUMPDEST PUSH0 DUP2 MLOAD SWAP1 POP SWAP2 SWAP1 POP JUMP JUMPDEST PUSH0 DUP3 DUP3 MSTORE PUSH1 0x20 DUP3 ADD SWAP1 POP SWAP3 SWAP2 POP POP JUMP JUMPDEST PUSH0 JUMPDEST DUP4 DUP2 LT ISZERO PUSH2 0x656 JUMPI DUP1 DUP3 ADD MLOAD DUP2 DUP5 ADD MSTORE PUSH1 0x20 DUP2 ADD SWAP1 POP PUSH2 0x63B JUMP JUMPDEST PUSH0 DUP5 DUP5 ADD MSTORE POP POP POP POP JUMP JUMPDEST PUSH0 PUSH2 0x66B DUP3 PUSH2 0x61F JUMP JUMPDEST PUSH2 0x675 DUP2 DUP6 PUSH2 0x629 JUMP JUMPDEST SWAP4 POP PUSH2 0x685 DUP2 DUP6 PUSH1 0x20 DUP7 ADD PUSH2 0x639 JUMP JUMPDEST PUSH2 0x68E DUP2 PUSH2 0x258 JUMP JUMPDEST DUP5 ADD SWAP2 POP POP SWAP3 SWAP2 POP POP JUMP JUMPDEST PUSH0 PUSH1 0x20 DUP3 ADD SWAP1 POP DUP2 DUP2 SUB PUSH0 DUP4 ADD MSTORE PUSH2 0x6B1 DUP2 DUP5 PUSH2 0x661 JUMP JUMPDEST SWAP1 POP SWAP3 SWAP2 POP POP JUMP JUMPDEST PUSH32 0x4E487B7100000000000000000000000000000000000000000000000000000000 PUSH0 MSTORE PUSH1 0x32 PUSH1 0x4 MSTORE PUSH1 0x24 PUSH0 REVERT JUMPDEST PUSH32 0x4E487B7100000000000000000000000000000000000000000000000000000000 PUSH0 MSTORE PUSH1 0x12 PUSH1 0x4 MSTORE PUSH1 0x24 PUSH0 REVERT JUMPDEST PUSH0 PUSH2 0x71D DUP3 PUSH2 0x38C JUMP JUMPDEST SWAP2 POP PUSH2 0x728 DUP4 PUSH2 0x38C JUMP JUMPDEST SWAP3 POP DUP3 PUSH2 0x738 JUMPI PUSH2 0x737 PUSH2 0x6E6 JUMP JUMPDEST JUMPDEST DUP3 DUP3 MOD SWAP1 POP SWAP3 SWAP2 POP POP JUMP JUMPDEST PUSH0 DUP2 SWAP1 POP SWAP2 SWAP1 POP JUMP JUMPDEST PUSH2 0x75D PUSH2 0x758 DUP3 PUSH2 0x3BF JUMP JUMPDEST PUSH2 0x743 JUMP JUMPDEST DUP3 MSTORE POP POP JUMP JUMPDEST PUSH0 PUSH2 0x76E DUP3 DUP6 PUSH2 0x74C JUMP JUMPDEST PUSH1 0x20 DUP3 ADD SWAP2 POP PUSH2 0x77E DUP3 DUP5 PUSH2 0x74C JUMP JUMPDEST PUSH1 0x20 DUP3 ADD SWAP2 POP DUP2 SWAP1 POP SWAP4 SWAP3 POP POP POP JUMP JUMPDEST PUSH0 PUSH2 0x798 DUP3 PUSH2 0x38C JUMP JUMPDEST SWAP2 POP PUSH2 0x7A3 DUP4 PUSH2 0x38C JUMP JUMPDEST SWAP3 POP DUP3 PUSH2 0x7B3 JUMPI PUSH2 0x7B2 PUSH2 0x6E6 JUMP JUMPDEST JUMPDEST DUP3 DUP3 DIV SWAP1 POP SWAP3 SWAP2 POP POP JUMP JUMPDEST PUSH0 DUP2 MLOAD SWAP1 POP SWAP2 SWAP1 POP JUMP JUMPDEST PUSH0 DUP2 SWAP1 POP SWAP3 SWAP2 POP POP JUMP JUMPDEST PUSH0 PUSH2 0x7DC DUP3 PUSH2 0x7BE JUMP JUMPDEST PUSH2 0x7E6 DUP2 DUP6 PUSH2 0x7C8 JUMP JUMPDEST SWAP4 POP PUSH2 0x7F6 DUP2 DUP6 PUSH1 0x20 DUP7 ADD PUSH2 0x639 JUMP JUMPDEST DUP1 DUP5 ADD SWAP2 POP POP SWAP3 SWAP2 POP POP JUMP JUMPDEST PUSH0 PUSH2 0x80D DUP3 DUP5 PUSH2 0x7D2 JUMP JUMPDEST SWAP2 POP DUP2 SWAP1 POP SWAP3 SWAP2 POP POP JUMP INVALID LOG2 PUSH5 0x6970667358 0x22 SLT KECCAK256 DELEGATECALL 0xDB 0x24 BLOCKHASH DIV SHL CALLCODE PUSH27 0x7A0C83AE10DC84A8F829C3D828D6E174D68D8AD310CC8C8864736F PUSH13 0x63430008160033000000000000 "
				},
				"gasEstimates": {
					"creation": {
						"codeDepositCost": "425200",
						"executionCost": "infinite",
						"totalCost": "infinite"
					},
					"external": {
						"encode(string)": "infinite",
						"hashes(uint256)": "4870",
						"makeHash(string)": "infinite",
						"verify(string,uint256,bytes32,bytes32[])": "infinite"
					},
					"internal": {
						"buildMerkleTree()": "infinite",
						"buildMerkleTreeRecursive(uint256,uint256)": "infinite"
					}
				},
				"methodIdentifiers": {
					"encode(string)": "6a11b2a8",
					"hashes(uint256)": "501895ae",
					"makeHash(string)": "52de70af",
					"verify(string,uint256,bytes32,bytes32[])": "2637cccf"
				}
			},
			"storageLayout": {
				"storage": [
					{
						"astId": 4,
						"contract": "contracts/MerklTree.sol:Tree",
						"label": "hashes",
						"offset": 0,
						"slot": "0",
						"type": "t_array(t_bytes32)dyn_storage"
					},
					{
						"astId": 13,
						"contract": "contracts/MerklTree.sol:Tree",
						"label": "transactions",
						"offset": 0,
						"slot": "1",
						"type": "t_array(t_string_storage)4_storage"
					}
				],
				"types": {
					"t_array(t_bytes32)dyn_storage": {
						"base": "t_bytes32",
						"encoding": "dynamic_array",
						"label": "bytes32[]",
						"numberOfBytes": "32"
					},
					"t_array(t_string_storage)4_storage": {
						"base": "t_string_storage",
						"encoding": "inplace",
						"label": "string[4]",
						"numberOfBytes": "128"
					},
					"t_bytes32": {
						"encoding": "inplace",
						"label": "bytes32",
						"numberOfBytes": "32"
					},
					"t_string_storage": {
						"encoding": "bytes",
						"label": "string",
						"numberOfBytes": "32"
					}
				}
			},
			"userdoc": {
				"kind": "user",
				"methods": {},
				"version": 1
			}
		}
	}
}