{
  "_format": "hh-sol-artifact-1",
  "contractName": "DutchAuction",
  "sourceName": "contracts/DutchAuction.sol",
  "abi": [
    {
      "inputs": [
        {
          "internalType": "uint256",
          "name": "_startingPrice",
          "type": "uint256"
        },
        {
          "internalType": "uint256",
          "name": "_discountRate",
          "type": "uint256"
        },
        {
          "internalType": "string",
          "name": "_item",
          "type": "string"
        }
      ],
      "stateMutability": "nonpayable",
      "type": "constructor"
    },
    {
      "anonymous": false,
      "inputs": [
        {
          "indexed": false,
          "internalType": "uint256",
          "name": "price",
          "type": "uint256"
        },
        {
          "indexed": false,
          "internalType": "address",
          "name": "buyer",
          "type": "address"
        }
      ],
      "name": "Bought",
      "type": "event"
    },
    {
      "inputs": [],
      "name": "buy",
      "outputs": [],
      "stateMutability": "payable",
      "type": "function"
    },
    {
      "inputs": [],
      "name": "discountRate",
      "outputs": [
        {
          "internalType": "uint256",
          "name": "",
          "type": "uint256"
        }
      ],
      "stateMutability": "view",
      "type": "function"
    },
    {
      "inputs": [],
      "name": "endsAt",
      "outputs": [
        {
          "internalType": "uint256",
          "name": "",
          "type": "uint256"
        }
      ],
      "stateMutability": "view",
      "type": "function"
    },
    {
      "inputs": [],
      "name": "getPrice",
      "outputs": [
        {
          "internalType": "uint256",
          "name": "",
          "type": "uint256"
        }
      ],
      "stateMutability": "view",
      "type": "function"
    },
    {
      "inputs": [],
      "name": "item",
      "outputs": [
        {
          "internalType": "string",
          "name": "",
          "type": "string"
        }
      ],
      "stateMutability": "view",
      "type": "function"
    },
    {
      "inputs": [],
      "name": "nextBlock",
      "outputs": [],
      "stateMutability": "nonpayable",
      "type": "function"
    },
    {
      "inputs": [],
      "name": "seller",
      "outputs": [
        {
          "internalType": "address payable",
          "name": "",
          "type": "address"
        }
      ],
      "stateMutability": "view",
      "type": "function"
    },
    {
      "inputs": [],
      "name": "startAt",
      "outputs": [
        {
          "internalType": "uint256",
          "name": "",
          "type": "uint256"
        }
      ],
      "stateMutability": "view",
      "type": "function"
    },
    {
      "inputs": [],
      "name": "startingPrice",
      "outputs": [
        {
          "internalType": "uint256",
          "name": "",
          "type": "uint256"
        }
      ],
      "stateMutability": "view",
      "type": "function"
    },
    {
      "inputs": [],
      "name": "stopped",
      "outputs": [
        {
          "internalType": "bool",
          "name": "",
          "type": "bool"
        }
      ],
      "stateMutability": "view",
      "type": "function"
    }
  ],
  "bytecode": "0x6101206040523480156200001257600080fd5b5060405162000a5438038062000a548339810160408190526200003591620000df565b620000446202a30083620001de565b831015620000895760405162461bcd60e51b815260206004820152600e60248201526d707269636520746f6f206c6f772160901b604482015260640160405180910390fd5b3360805260a08390526101008290524260c0819052620000ae906202a30090620001fe565b60e0526000620000bf8282620002a5565b5050505062000371565b634e487b7160e01b600052604160045260246000fd5b600080600060608486031215620000f557600080fd5b835160208086015160408701519295509350906001600160401b03808211156200011e57600080fd5b818701915087601f8301126200013357600080fd5b815181811115620001485762000148620000c9565b604051601f8201601f19908116603f01168101908382118183101715620001735762000173620000c9565b816040528281528a868487010111156200018c57600080fd5b600093505b82841015620001b0578484018601518185018701529285019262000191565b60008684830101528096505050505050509250925092565b634e487b7160e01b600052601160045260246000fd5b8082028115828204841417620001f857620001f8620001c8565b92915050565b80820180821115620001f857620001f8620001c8565b600181811c908216806200022957607f821691505b6020821081036200024a57634e487b7160e01b600052602260045260246000fd5b50919050565b601f821115620002a0576000816000526020600020601f850160051c810160208610156200027b5750805b601f850160051c820191505b818110156200029c5782815560010162000287565b5050505b505050565b81516001600160401b03811115620002c157620002c1620000c9565b620002d981620002d2845462000214565b8462000250565b602080601f831160018114620003115760008415620002f85750858301515b600019600386901b1c1916600185901b1785556200029c565b600085815260208120601f198616915b82811015620003425788860151825594840194600190910190840162000321565b5085821015620003615787850151600019600388901b60f8161c191681555b5050505050600190811b01905550565b60805160a05160c05160e0516101005161067d620003d7600039600081816101fa01526102c601526000818160f9015261036901526000818161019201526102970152600081816101c601526102f201526000818160a80152610459015261067d6000f3fe6080604052600436106100915760003560e01c8063a6f2ae3a11610059578063a6f2ae3a14610178578063c744656514610180578063d6fbf202146101b4578063e6c0e6d5146101e8578063f2a4a82e1461021c57600080fd5b806308551a53146100965780630a09284a146100e757806375f12b211461012957806383788fce1461015357806398d5fdca14610163575b600080fd5b3480156100a257600080fd5b506100ca7f000000000000000000000000000000000000000000000000000000000000000081565b6040516001600160a01b0390911681526020015b60405180910390f35b3480156100f357600080fd5b5061011b7f000000000000000000000000000000000000000000000000000000000000000081565b6040519081526020016100de565b34801561013557600080fd5b506001546101439060ff1681565b60405190151581526020016100de565b34801561015f57600080fd5b505b005b34801561016f57600080fd5b5061011b61023e565b61016161031d565b34801561018c57600080fd5b5061011b7f000000000000000000000000000000000000000000000000000000000000000081565b3480156101c057600080fd5b5061011b7f000000000000000000000000000000000000000000000000000000000000000081565b3480156101f457600080fd5b5061011b7f000000000000000000000000000000000000000000000000000000000000000081565b34801561022857600080fd5b506102316104ea565b6040516100de9190610578565b60015460009060ff16156102905760405162461bcd60e51b815260206004820152601460248201527368617320616c72656164792073746f707065642160601b60448201526064015b60405180910390fd5b60006102bc7f0000000000000000000000000000000000000000000000000000000000000000426105dd565b905060006102ea827f00000000000000000000000000000000000000000000000000000000000000006105f6565b9050610316817f00000000000000000000000000000000000000000000000000000000000000006105dd565b9250505090565b60015460ff16156103675760405162461bcd60e51b815260206004820152601460248201527368617320616c72656164792073746f707065642160601b6044820152606401610287565b7f000000000000000000000000000000000000000000000000000000000000000042106103c25760405162461bcd60e51b8152602060048201526009602482015268746f6f206c6174652160b81b6044820152606401610287565b60006103cc61023e565b9050803410156104095760405162461bcd60e51b8152602060048201526008602482015267746f6f206c6f772160c01b6044820152606401610287565b600061041582346105dd565b9050801561044c57604051339082156108fc029083906000818181858888f1935050505015801561044a573d6000803e3d6000fd5b505b6040516001600160a01b037f000000000000000000000000000000000000000000000000000000000000000016904780156108fc02916000818181858888f193505050501580156104a1573d6000803e3d6000fd5b506001805460ff191681179055604080518381523360208201527fc54c8cc1c7525b424ec71b685c00d9355581a280488018c22005332ceb2fd406910160405180910390a15050565b600080546104f79061060d565b80601f01602080910402602001604051908101604052809291908181526020018280546105239061060d565b80156105705780601f1061054557610100808354040283529160200191610570565b820191906000526020600020905b81548152906001019060200180831161055357829003601f168201915b505050505081565b60006020808352835180602085015260005b818110156105a65785810183015185820160400152820161058a565b506000604082860101526040601f19601f8301168501019250505092915050565b634e487b7160e01b600052601160045260246000fd5b818103818111156105f0576105f06105c7565b92915050565b80820281158282048414176105f0576105f06105c7565b600181811c9082168061062157607f821691505b60208210810361064157634e487b7160e01b600052602260045260246000fd5b5091905056fea2646970667358221220c800938c588187e1c6681bdc05ef6944f72a41c6d58f3f8b8964c1533324648264736f6c63430008180033",
  "linkReferences": {},
  "deployedLinkReferences": {}
}